:020000040800F2
:1000000038170020B14400080D4400080F440008D0
:1000100011440008134400081544000800000000C3
:10002000000000000000000000000000174400086D
:1000300019440008000000001B4400081D4400088B
:10004000E9440008ED440008F1440008F5440008C4
:10005000F9440008FD440008014500080545000872
:10006000094500080D450008114500081545000820
:10007000194500081D4500082145000825450008D0
:10008000294500082D450008314500083545000880
:10009000394500083D450008414500084545000830
:1000A000494500084D4500085145000855450008E0
:1000B000594500085D450008614500086545000890
:1000C000694500086D450008714500087545000840
:1000D00079450008214400087D4500088145000855
:1000E00085450008894500088D45000891450008B0
:1000F00095450008994500089D450008000000004E
:10010000A1450008A5450008A9450008AD4500081F
:10011000B1450008B5450008B9450008BD450008CF
:10012000C1450008C5450008C9450008CD4500087F
:10013000D1450008D5450008D9450008DD4500082F
:10014000E1450008E5450008E9450008ED450008DF
:10015000F1450008F5450008F9450008FD4500088F
:100160000146000805460008094600080D4600083B
:100170001146000815460008000000001946000856
:100180001D460008214600082546000829460008AB
:100190002D46000835460008000000000000000061
:1001A0000000000000000000314600083946000849
:1001B0003D460008414600084546000878B5040061
:1001C00085B04BD004F13405287820BB002121777D
:1001D000DFF8A406DFF8A416DFF8A426E864296592
:1001E000EA66DFF8A006DFF8A0166865A965DFF803
:1001F0009C06DFF89C16E8652966DFF89806DFF8AC
:1002000098166866A966286F10B9DFF890162967F6
:100210002046296F884703202870204600F040F8C8
:10022000E0B96946204600F02DFCB8B99DF81010E1
:100230009DF81100AA68012A07D100290ABF0028E9
:100240004FF400704FF4807002E00021A96200E0DA
:10025000A862E168204600F0F8FC10B1012006B069
:1002600070BD00F071FE0646204600F0BBFD04287C
:100270000ED000F069FE801B10F1010FF4D14FF099
:100280000040686001212970002222630320E6E714
:100290000020686000212163012028700020DEE733
:1002A0002DE9F0478CB0002105460391049105919A
:1002B00006914FF4002001F01BF8060005F134040C
:1002C00005D1012020704FF00061616027E1DFF867
:1002D000DC05B6FBF0F70797A8690890012804D160
:1002E0002868016841F01001016003A983B06846E5
:1002F000182201F083FB0EBC286801F08BFB08B1CB
:1003000000F0FFB8286801F09DFB08B100F0F9B8D3
:100310007F00B6FBF7F0DFF89815B1FBF0F0401C5A
:1003200001F05CFE00200090824600F00DFE814648
:10033000286801F037FC002600284FF080584FF065
:1003400080671BD1286801F050FC78B1E66028680E
:1003500001F028FC002811D1E06801281FD128688D
:10036000002101F056FC00280FD118E00120E060C8
:10037000F5E72868002101F04CFC002870D12868BE
:10038000DFF8301501F050FC002840F0AC8000F0A0
:100390003DFD82460098401C4FEADA7600904FF609
:1003A000FF700099814201D2002EE2D00099814273
:1003B00053D25FEA4A004DD50121A160A869012806
:1003C0003FD15FEACA103CD54FF40071A1622868A2
:1003D000026842F008020260286801F0B5FC0028BB
:1003E0003ED12868416B4A0107D400F0ADFD00F012
:1003F00092FDF6D14FF000407EE087632868416BA4
:10040000C80270D5E16E012088472868026842F072
:10041000040202602868416B8A0105D400F094FD53
:1004200000F079FDF6D1E5E74FF0007181632868AF
:10043000416BCA0211D4132101604FF0FF302A68CA
:1004400090630120ADF80000286801F005FB50B969
:10045000384651E00020A060F3E74FF080704BE099
:100460000028EED048E0A068032833D0286801F0C7
:10047000F0FB002840D100F0C9FCE06300F052F826
:100480002064082100F04FF860640C2100F04BF864
:10049000A064A06803281DD02868694601F003FC09
:1004A00050BBA068032815D0BDF800106161090495
:1004B000286801F0E2FBF8B900F0A8FCE06200F067
:1004C00031F82063082100F02EF860630C2100F061
:1004D0002AF8A06300F026F8000D206101A9284643
:1004E00000F0ECF908B1404606E0626928681204A1
:1004F000002301F04AFB30B10121217062681043F2
:10050000606001200BE000F089FB40B12A68DFF851
:10051000A8139163616808436060012020700CB0EB
:10052000BDE8F0870421286801F0ACBA2DE9F04F4E
:1005300087B006460C469246984600F005FD0090AE
:10054000254606F134071CB9786840F000609EE04B
:100550003878012840F098800021796008EB0A0281
:10056000386A904204D2796841F0007179608FE076
:1005700000F06AF90191012818BF4FEA4A2A4FEAB0
:1005800048229021029203910222002104920591B7
:10059000069101A9306801F078FA00F04DF906D310
:1005A000022030635146306801F09BFA05E00120DB
:1005B00030635146306801F089FA0028DFF8F842CC
:1005C00041D1DDF808A0DDF840B03068416B11F48E
:1005D000957F2CD1406B010414D5BAF1000F11D0D6
:1005E000AAF1200A4FF00809306801F025FA2870B6
:1005F000010A6970020CAA70000EE8702D1DB9F195
:100600000109F1D100F0A0FC0099401A584502D22E
:10061000BBF1000FD9D1306884630120796841F0C3
:1006200000417960387000213163032031E000F02F
:10063000FBF80BD5B8F1020F08D3B968032905D030
:1006400001F07EFA10B100F007F922E03068416B4A
:100650000A0704D58463786840F008000EE0416B17
:100660008A0704D58463786840F0020006E0416B95
:100670008A0606D58463786840F0200000F0CEF842
:1006800006E000F0C4F804E0786840F000507860BC
:10069000012007B0BDE8F08F2DE9F84F88B006467D
:1006A0000C461546984600F04FFC0190A24606F114
:1006B00034071CB9786840F00060A3E0387801285E
:1006C00040F09D800021796008EB0502386A904275
:1006D00004D2796841F00071796094E000F0B4F8D8
:1006E00002914FEA48220128039218BF6D0290211F
:1006F0000022049105920692079202A9306801F047
:10070000C4F900F099F806D32020306329463068F8
:1007100001F0FDF905E0102030632946306801F052
:10072000EBF90028DFF8904148D1039DDDF848B08F
:100730003068416B11F48D7F34D1406B41041ED57C
:10074000EDB1203D4FF008091AF8010B0090014669
:100750001AF8010B41EA0021009108461AF8011B22
:1007600040EA014000901AF8011B40EA0160009045
:100770006946306801F061F9B9F10109E4D100F08E
:10078000E3FB0199401A584502D2BBF1000FCFD1CB
:1007900030688463012079687960387000223263A0
:1007A000032031E000F040F80BD5B8F1020F08D378
:1007B000B968032905D001F0C3F910B100F04CF875
:1007C00022E03068416B0A0704D58463786840F002
:1007D00008000EE0416B8A0704D58463786840F016
:1007E000020006E0416BCA0606D58463786840F0D3
:1007F000100000F013F806E000F009F804E0786853
:1008000040F000507860012009B0BDE8F08FDFF8BB
:10081000081481630120387000207047786001213E
:100820003970002030637047C16821F04001C16019
:100830003068416BCA0570473068C16841F04001BB
:10084000B8F1020FC1607047032038703268D1627E
:100850004FF0FF31B868704731688C6300217A68C7
:100860001043786001203870316370470592694603
:10087000286801F00AB90000C5440008C94400080E
:1008800049460008BB340008C1440008873D000801
:100890004B3F0008CF400008734100089B3B000815
:1008A000706840F0006070607047000000350C0018
:1008B00010210100000010C1FF0FE01F30B500F152
:1008C0003403DA6A920F0A70DC6AA40E04F00F0493
:1008D0004C70DA6A120E02F003028A70DA6A120CA5
:1008E000CA70DA6A120A0A71DA6A4A711C6B240D3C
:1008F000CC804FF400741A6B120C02F00F020A72D3
:100900001A6BD20B02F001024A721A6B920B02F0C0
:1009100001028A721A6B520B02F00102CA721A6B40
:10092000120B02F001020A7300224A739A68002A2D
:1009300040F08D80186B40F6FC7202EA8002586B22
:1009400042EA90720A610122586BC00E00F0070063
:100950000875586B000E00F007004875586B400D85
:1009600000F007008875586B800C00F00700C87510
:10097000586BC00B00F0070008760869401C9861AE
:100980000D7E05F00705AD1C02FA05F56843986178
:100990000D7A05F00F05AA40DA61520A5043186239
:1009A0005C62586B800B00F001004876586BC00900
:1009B00000F07F00887693F8340000F07F00C8765E
:1009C000986BC00F0877986B400F00F003004877D2
:1009D000986B800E00F007008877986B800D00F010
:1009E0000F00C877986B400D00F0010081F82000DF
:1009F00001F12100002101709A6B120C02F001023A
:100A000042700122996BC90B01F001018170996B51
:100A1000890B01F00101C170996B490B01F00101D3
:100A20000171996B090B01F001014171996B890A00
:100A300001F003018171996B090A01F00301C17191
:100A4000996BC1F3460101724272002030BD012A48
:100A50000DD1186B5A6B000400F47C1040EA124070
:100A600008610869DC61401C8002986197E70068B2
:100A7000DFF8C01481630120596841F0805159604A
:100A8000187030BD2DE9F84F96B005460E4600F0BF
:100A90005BFA80462868DFF89CA400F0B8F9800172
:100AA0004FF000090DF1180B05F1340716D54FF47E
:100AB00000602968C1F838A07A6810437860012086
:100AC0003870814600F0AAF830B12968C1F838A022
:100AD000786001203870814648467BE128684021D3
:100AE00000F0E9FF10B179687960E2E7796900F018
:100AF00005FA0028F7D1402101914FF0FF32022181
:100B000000920391602201210292CDF8109005918C
:100B1000FFF7ADFE286801F0F5F878B1E3E7406B28
:100B2000010406D5082400F001FA641E4BF8040BFA
:100B3000F9D100F009FA00F050F920D02868416B93
:100B400011F4957FEBD0416B0A0748BF0820B0D461
:100B5000416B8A0748BF0220ABD4406B810648BF77
:100B60002020A6D42868416BCA040BD500F064FF8E
:100B70004BF8040B00F0E8F900F02FF9F2D14FF038
:100B8000004096E7DFF88C1281630698C0F381106D
:100B900030700698C0F34010707006980699000AED
:100BA00000F47F4040EA1160708006A841680A02A4
:100BB00002F47F020B0A42EA016203F47F431A4304
:100BC00042EA11627260816831728268120A72723E
:100BD0008168090D01F00F01B1728268C168120CC1
:100BE00002F47F4201F0FF031A43890AB28101F047
:100BF0003F01B173C168090A01F00301F173C168D3
:100C0000C1F303113174017B01F00F0171740069AC
:100C1000000EB07456E700003A0F001828684FF431
:100C2000007100F048BFC26B0A60036C4B60426CFD
:100C30008A60836CCB60C26C0A61036D4B61426D4C
:100C40008A61806DC861002070472DE9F043054638
:100C500005F1340689B00320884630700024B1685D
:100C6000032918BFB8F5004F4AD0B8F5804F4FF0B0
:100C700080674FF400691BD100F044F900F0C6F81A
:100C8000800148BF4F4633D46946284600F0C4F877
:100C9000F0B9019841032BD500F02FF9070027D1B7
:100CA0002868022100F0C6FF070021D100271FE0BD
:100CB000B8F1000F20D100F025F900F0A7F880016D
:100CC00048BF4F4614D46946284600F0A5F808B13D
:100CD00007460DE00198C1030AD500F00EF90700A0
:100CE00006D12868002100F0A5FF070008BF0027F3
:100CF00070680743776007E0706840F0006002E0CA
:100D0000706840F0805070607068DFF8287210B131
:100D100029688F634BE04FF4002000F0E9FA0100EE
:100D200043D068680390AA680492CDF814802869BB
:100D3000DFF804220690B1FBF2F26869904226D2F5
:100D4000B36AB3F5007F22D0B3F5807F14D1DFF80A
:100D5000E82130B991421AD9DFF8E001B1FBF0F097
:100D600015E04300B1FBF3F3934210D9DFF8CC2137
:100D7000B1FBF2F107910BE0DFF8C43118B14FEA93
:100D8000400EB1FBFEF1994228BF079200D20790B6
:100D9000A869089003A983B06846182200F02EFEC7
:100DA0000EBC286800F036FE02E0FFF779FD012452
:100DB0004FF4007100F0ACF828B129688F6301246A
:100DC0007268104370600120307009B02046BDE8A1
:100DD000F083000017B0BDE8F08FA0EB080010F121
:100DE000010F704738B504460025A16C206809043E
:100DF00000F07DFF18B1A16B0843A06304E02068F8
:100E000000F005F8C0F34325284632BD28680021CC
:100E100000F038BE3A0F0018F8B588B005460E4607
:100E200000F092F8074600F06DF82868082100F0FD
:100E300042FE002400285ED1A96C00F05FF8002873
:100E400059D1082203924FF0FF31022202910592FC
:100E50003021012204910694079202A9286800F02B
:100E600014FE286800F0E8FE002844D100F058F88D
:100E7000416B12D10A0307D434B900F0DDFD0090B4
:100E8000012400F053F8019000F05EF8C01B10F14F
:100E9000010FEBD14FF000402DE00A0748BF0821B9
:100EA00008D4416B8A0748BF022103D4416B8A06EC
:100EB00003D52021816308461DE022498163019802
:100EC000010201F47F01020A41EA006102F47F425B
:100ED000114341EA106131600098010201F47F0181
:100EE00041EA0061000A00F47F400143009841EAB2
:100EF00010617160002009B0F0BD716928680904B3
:100F000000F087BE08220021684601F07BB840212E
:100F1000286800F0D0BDA0EB090010F1010F704768
:100F20002868416B40F22A5211427047286800F04D
:100F300083BD0000FF0FE01F80F0FA0200E1F5051D
:100F400041787D013A0F001801484068704700BFA2
:100F5000000000202DE9F84F064600253068DFF834
:100F6000BC77DFF8BC470105A84620D5F06E68B114
:100F7000202817D0402804D0602818BF802809D026
:100F800013E0226842F48032226004E0002100F085
:100F9000ABF9054655B9F968F06E21F0E00101435F
:100FA000F96004E000F09AF9F3E70125A8463068FB
:100FB000C10424D5306FC0B1B0F5807F1AD0B0F530
:100FC000007F06D0B0F5407F18BFB0F5806F04D029
:100FD00013E0216841F4803121607DB9F968306FF8
:100FE00021F4E0610143F96009E0002100F07CF99F
:100FF0000546F2E700F072F9FAE70125A8463068E5
:10100000810306F184092DD5E06CC1004FF0000A80
:101010000AD4E06C40F08050E0644FF0010AE06CCC
:1010200000F0805000900098DFF8F816086840F44F
:1010300080700860FFF788FF8346DFF8E8060168E4
:10104000CA0500F18B80FFF77FFFA0EB0B000328A0
:10105000F3D30325A846BAF1000F03D0E06C20F0CB
:101060008050E0643078C10705D5E26FF06B9208DC
:1010700040EA8202E2673178880705D5E16F306C7B
:1010800021F00C010143E1673178480705D5E16F94
:10109000706C21F030010143E1673178080705D514
:1010A000E16FB06C21F0C0010143E1673178C806FF
:1010B00005D5E16FF06C21F440710143E1673178AF
:1010C000880605D5E16F306D21F440610143E16789
:1010D0003168880505D5E16F706E21F44021014328
:1010E000E1673168480505D5E16FB06E21F4401124
:1010F0000143E1673178480605D5E16F706D21F451
:1011000040510143E1673178080605D5E16FB06DC4
:1011100021F440410143E1673168C80505D5E16F1D
:10112000F06D21F440310143E1673168C80205D513
:10113000F968306E890840EA8101F96031688804F5
:1011400045D5E16F706F21F040610143E167706F39
:10115000B0F1006F33D100F0BCF838E0002D7FF41F
:1011600079AF386810F440701CBFD9F80C10884271
:101170000BD03868396841F48031396020F4407010
:101180003A6822F480323A603860C0070FD5FFF722
:10119000DBFE05463868810709D4FFF7D5FE401B02
:1011A00041F289318842F5D34FF0030853E739689B
:1011B000D9F80C0021F44071014339604BE7B0F1DC
:1011C000806F04D100F08FF8010018BF80463068AE
:1011D000010329D5B06FB0F5804FF86803D140F412
:1011E0008040F86008E020F48040F860E16FB06F64
:1011F00021F040610143E167B06FB0F1006F03D1AE
:10120000206840F4801005E0B0F5804F04D12068DC
:1012100040F48030206007E0B0F1806F04D100F02E
:1012200062F8010018BF80463068410314D5E26FB0
:10123000F06F22F040620243E267F06FB0F1006F9E
:1012400002D100F046F807E0B0F1806F04D100F061
:101250004AF8010018BF80463068410411D5E26F9A
:10126000D6F8800022F040520243E267D6F88010A0
:10127000B1F1805F05D1022100F036F8010018BFFE
:1012800080463068C10306D5FA68D9F8000022F01C
:1012900004020243FA603168880206D5F968D9F879
:1012A000040021F018010143F9603168C8010DD52F
:1012B000F968D9F8080021F440110143F960D9F820
:1012C0000810B1F5001F01D100F003F84046BDE859
:1012D000F28F206840F4801020607047002106F1F2
:1012E000200000F079BA0121301D00F01DBA000085
:1012F000F8B501460020B1F5003FDFF8F055DFF802
:10130000C4364FF400464FF4FA4C13D1A96801F4E7
:101310004071B1F5807F00F0B981B1F5007F00F038
:10132000AB81B1F5407F04D119688A0301D5DFF89C
:101330009806F2BDDA68DFF89446DFF8947602F09A
:101340000302012A04D01DD3032A15D00FD319E0BC
:101350001A68920716D51A6812074EBF1A68EA680B
:10136000120902F0F002120954F822200BE01A6868
:10137000520507D53A4606E01A68920348BFDFF8DF
:10138000542600D400220129DFF84CE600F0AE809C
:10139000022900F0B680042900F0BE80082900F080
:1013A000C780102900F0CE80202900F0D880402985
:1013B00000F01D81802900F02481B1F5807F00F0CC
:1013C0002B81B1F5007F00F03981B1F5806F00F01D
:1013D0004281B1F5006F00F0FA80B1F5805F1DD059
:1013E000B1F5005F1ED0B1F5804F00F0C580B1F5BA
:1013F000803F00F0DC80B1F5802F13D0B1F5002FD5
:1014000030D0B1F5801F00F01181B1F5001F00F060
:10141000D580B1F1807F00F03E81F2BD11464FF4DE
:101420008050D7E0296811F040615AD0B1F1806F47
:101430000FD0B1F1006F3CD0B1F1406FEDD1196820
:101440008A07EAD5186801074EBF1868E8680009DE
:1014500039E119680C01E0D51969CC021FD500F0FB
:1014600053F942E169694E041AD519688C0116D501
:10147000D968CC0313D5D868C0F306204243D86896
:10148000C0F30310401CB2FBF0F1D868C00E04D1C9
:10149000D86882034CBF11200720B1FBF0F0F2BDE9
:1014A000296811F040611CD0B1F1806F10D0B1F10A
:1014B000006F00F00E81B1F1406FF0D119688A071A
:1014C000EDD5186801074EBF1868E8680009FAE012
:1014D00019680C0109D51969CC0206D500F014F978
:1014E00003E129698A0700D57046F2BD296801F039
:1014F00003010329F9D8DFE811F05D00D900C40029
:10150000C900296811F00C0100F0B28004293CD018
:10151000082958D00C2908E0296811F0300169D059
:10152000102932D020294ED0302900F0AF80F2BDF2
:10153000296811F0C0015DD0402926D0802942D011
:10154000C029F2E7296811F4407153D0B1F5807FCA
:101550001BD0B1F5007F36D0B1F5407FE5E72968B3
:1015600011F4406146D0B1F5806F0ED0B1F5006F37
:1015700029D0B1F5406FD8E7296801F04051B1F1A9
:10158000805F03D0B1F1405F20D18FE019680C017A
:101590001CD51969CC0119D51869196900F0AEF884
:1015A0001969401CB2FBF0F0C1F34161A1E0686928
:1015B00040077BD4BDE8F14001F0B1B8696911F092
:1015C000180104D008295CD0102906D0F2BD1146BC
:1015D0004FF40060BDE8F4408AE119688A07F5D548
:1015E000186801074EBF1868E86800096BE02968B1
:1015F00011F440513CD0B1F5805F57D0B1F5005F98
:1016000008E0296811F4404132D0B1F5804F4DD047
:10161000B1F5004F35D0F2BD296811F4403127D023
:10162000B1F5803F42D0B1F5003FF3E7696911F0B1
:1016300003011DD0022924D05FD237E0296811F4BC
:10164000402115D0B1F5802F16D0B1F5002F18D05C
:10165000B1F5402F69E7296811F4401108D0B1F5C0
:10166000801F09D0B1F5001F0BD0B1F5401F5CE71A
:10167000BDE8F14001F04BB8E9688A073DD5604606
:10168000F2BD19684A0538D53846F2BDA9688A07FF
:1016900033D53046F2BD696911F4401106D0B1F579
:1016A000801F07D0B1F5001F13D0F2BDBDE8F14097
:1016B00000F0E4BF19688A071FD5186801074EBFFC
:1016C0001868E868000900F0F000000954F82000EC
:1016D000F2BD19688C0110D5D968CC020DD5D86837
:1016E000D96800F00BF8401CD968B2FBF0F0C1F3E8
:1016F0004151491C4900B0FBF1F0F2BDC0F3062096
:101700004243C1F30310704718691969C0F30620FA
:101710004243C1F30310401C196970479010024006
:101720000C100240007000402DE9F04100F0D4F8A8
:1017300006D0F96801F00301814228D160B926E0A2
:10174000012804D023D303281BD016D31FE0396807
:101750008A071CD500F0BAF8386820F0806000F0E5
:10176000B2F880463868010113D5FFF7EDFBA0EB16
:1017700008000328F6D303252DE039684A05E9D48B
:1017800005E039688A03E5D439684A03E2D40125C3
:1017900021E07168B268491E1CB93B6900F076F817
:1017A00003E0012C3B6900F079F842EA011139614C
:1017B000386840F0806000F086F80446386801011F
:1017C00005D4FFF7C1FB001B0328F7D3D3E7386923
:1017D000B1690843386156E02DE9F04100F07CF82A
:1017E00006D0F96801F00301814228D160B926E0F2
:1017F000012804D023D303281BD016D31FE0396857
:101800008A071CD500F062F8386820F0805000F09C
:101810005AF880463868810013D5FFF795FBA0EB96
:1018200008000328F6D303252DE039684A05E9D4DA
:1018300005E039688A03E5D439684A03E2D4012512
:1018400021E07168B268491E1CB97B6900F01EF87E
:1018500003E0012C7B6900F021F842EA0111796173
:10186000386840F0805000F02EF804463868810057
:1018700005D4FFF769FB001B0328F7D3D3E778698A
:10188000B169084378612846BDE8F0815348F4689F
:10189000034043EA022242EAC462704709D1346934
:1018A0004F480340640843EA0222641E42EA44525D
:1018B000704774694B480340640843EA0222641E7F
:1018C00042EA446270473860FFF73EBBF968890816
:1018D00040EA8100F860704706463A4F30680C468F
:1018E000F968002511F0030F7047000088100240CE
:1018F00010B50022B0F5006F324B3B4C1CD1206874
:1019000000F0E000602820D0402818BFB0F5007F2C
:101910001DD11868840153D5D868C40350D5D86840
:1019200000F066F8D868C0F30622D868C00E44D12B
:10193000D868830340D53DE0B0F5805F08D12068CA
:1019400000F4E060B0F5407FDED1284A38E080B98D
:101950001868040134D51869C40331D5186900F03A
:1019600047F81869C0F306221869C00E25D1186916
:101970001EE0802818BFB0F5806F04D118684105BB
:101980001ED5134A1CE0202818BFB0F5807F17D160
:101990001868840014D55869C40311D5586900F03B
:1019A00027F85869C0F306225869C00E05D1586956
:1019B000830301D5112000E007205143B1FBF0F271
:1019C000104610BD00100240B0710B0044430008E7
:1019D0000024F40000366E01006CDC020F80FF076B
:1019E0000F809FFF0F80FFF99C10024068FF1F00CF
:1019F000C0F30310401CB1FBF0F170474AB1000086
:101A000011F8013B521E00F8013B1CBF11F8013BCD
:101A1000F8E770470EB44368DFF89C251340019A3D
:101A20000B4302991343039A0B43049913430B434B
:101A30004360002003B070473AE00968C0F88010A6
:101A40000020704780B5016841F003010160022069
:101A500000F0C4FA002002BD006800F003007047E7
:101A600010B50A68DFF854358260C4684A681C40C3
:101A70008B681443CA6809691C4314430C43C4604F
:101A8000002010BD14300858704730B50A68426213
:101A90004B688362C46A4D698B68CA6809691D43D3
:101AA0001543240A0D4345EA0424C462002030BDD6
:101AB000D0F88000704718B585B000F03CF81021D0
:101AC00000F030F841F28832102138E118B585B0C5
:101AD00000F031F8112100F025F841F2883211218F
:101AE0002DE118B585B000F026F8122100F01AF8A3
:101AF00041F28832122122E118B585B000F01BF8BE
:101B0000182100F00FF841F28832182117E118B5BA
:101B100085B000F010F8192100F004F841F2883285
:101B200019210CE101914FF480520021039104929C
:101B30000446694694E74FF4807200910292704720
:101B400018B54FF4807285B000F093F800900C2126
:101B500003904FF48052019104926946E06840F08E
:101B60008000E0602046E26822F04002E260FFF779
:101B700077FFDFF84C240C21204600F0F2F8E168F2
:101B800021F08001E16006B010BD18B585B00721D5
:101B9000009201914FF4807200F0A0F841F2883277
:101BA0000721CCE018B585B00446002000900190D4
:101BB000029000F08CF8DFF80C241168C9084FF48B
:101BC0007A73B1FBF3F141F2883041430846411E7C
:101BD00038B1606B0206F9D5DFF8EC03A063002092
:101BE00001E04FF0004006B010BD18B508214FF4D9
:101BF000807285B00446019102924FF4D5700021A5
:101C00000090039100F064F8204600F0B1F906B0AE
:101C100010BD18B585B0FFF78EFF3721FFF782FFA3
:101C200041F2883237218AE018B585B0FFF783FF8B
:101C3000292174E018B579E018B54FF4807285B0A9
:101C400000F017F8332100F040F841F288323321D8
:101C500075E018B54FF4407285B000F00AF8022123
:101C60000090019103904FF48052049269462046FF
:101C700012E0044602920020704718B585B04FF478
:101C8000407200910292092101914FF4805200218B
:101C90000391049204466946FFF7E2FE204600F0F5
:101CA000DEF806B010BD30B54FF4807285B0044642
:101CB0000D4602920020032100F007F82A46032176
:101CC000204600F00DF905B030BD00900191039061
:101CD0004FF48052049269462046C1E602920021E8
:101CE00003914FF48052049204466946B8E618B551
:101CF00085B0FFF720FF0D21FFF714FF41F2883276
:101D00000D211CE018B54FF4807285B0FFF7B1FFCC
:101D10000D21FFF7DAFF41F288320D210FE0FFF7C6
:101D200001FF204600F0B8F806B010BD85B0FFF7FF
:101D300002FF0621FFF7F6FE41F288320621204617
:101D400000F00FF806B010BD18B54FF4807285B0E2
:101D5000FFF78FFF0B21FFF7B8FF41F288320B210D
:101D6000EDE730B5974C2568984C0346ED084FF4E5
:101D70007A70B5FBF0F042431046421E40B1586BFA
:101D80002042F9D08004F7D45A6B500701D5EBE01C
:101D9000DBE0586BC20700D5E3E08B489863186915
:101DA000C0B2884201D0012030BD5869884908423C
:101DB00001D1002030BD02D54FF0007030BD410090
:101DC00001D5402030BD810001D5802030BDC1004B
:101DD00002D54FF4807030BD010102D54FF4007080
:101DE00030BD410102D54FF4806030BDC10102D544
:101DF0004FF4006030BD010200D5A9E0410200D5DA
:101E0000A9E0810202D54FF4804030BDC10202D565
:101E10004FF4004030BD410302D54FF4003030BDD7
:101E2000810302D54FF4802030BDC10302D54FF4A9
:101E3000002030BD010402D54FF4801030BD4104B4
:101E400002D54FF4001030BD810402D54FF480005C
:101E500030BD000702D54FF4000030BD7EE0594987
:101E60000A68D2084FF47A73B2FBF3F241F2883178
:101E70004A4311464A1E49B1416B11F0450FF8D053
:101E80008904F6D4426B510701D521E01DE0416B76
:101E9000CA0700D59EE01FE04A490A68D2084FF4FD
:101EA0007A73B2FBF3F241F288314A4311464A1E7B
:101EB00049B1416B11F0450FF8D08904F6D4426B5B
:101EC000510701D504E000E006E04FF00040704704
:101ED00004228263042070473B49816300207047DD
:101EE00030B5034637480468E4084FF47A75B4FB0C
:101EF000F5F441F2883044432046441E48B1586B03
:101F000010F0450FF8D08004F6D45C6B600701D563
:101F10002AE01AE0586BC40700D522E01869C0B265
:101F2000884201D0012030BD27489863586910F4D9
:101F3000604F03D1000C1080002030BD410400D55B
:101F400009E0000400D503E008E04FF0004030BD98
:101F50004FF4805030BD4FF4005030BD4FF480300E
:101F600030BD0120986330BD04219963042030BD49
:101F700014490A68D2084FF47A73B2FBF3F241F2C3
:101F800088314A4311464A1E49B1416B11F0450F51
:101F9000F8D08904F6D4426B510701D598E794E74D
:101FA000416BCA0700D515E0416B4A0644BF40218A
:101FB0008163002070470000002CC0FFC0E0FEFFDE
:101FC00000E1F5050C000020C500200045002000C0
:101FD00008E0FFFD012181630120704738B5044608
:101FE000FEF7B2FF14F1010F054602D00448017854
:101FF0006418FEF7A9FF401BA042FAD331BD00BF11
:102000000000002010B5044610460A46014620464E
:1020100000F0ECFB204610BD2DE9FC47050064D024
:10202000DFF88477DFF89067BC68F86800F0030891
:102030002878C10604F00C0447D524B10C2C08BF45
:10204000B8F1010F2BD13868810702D5A8690028A3
:102050004BD0396808074EBF396871680909286A8A
:1020600001F0F001814206D200F065FB00283CD16E
:1020700000F015FA07E000F012FA24B9286A00F01F
:102080005AFB002831D100F0F9FA00F0ECFADFF841
:102090002007006800F0FAFB010016D0F9E1A869FA
:1020A00028B3396841F001013960FEF74DFF8146E0
:1020B0003868810707D4FEF747FFA0EB0900032823
:1020C000F6D30320E5E100F0EAF92878C10756D5F8
:1020D000082C04D00C2C08BFB8F1030F18D13868B5
:1020E00081034CD56868002849D10120D1E13868C6
:1020F000400840003860FEF727FF814638688107B6
:10210000E3D5FEF721FFA0EB09000328F6D3D8E7BB
:102110006868B0F5803F04D1386840F4803038609A
:1021200011E0B0F5A02F386806D140F48020386067
:10213000396841F4803105E020F480303860396836
:1021400021F480213960686860B1FEF7FDFE8146A8
:102150003868810313D4FEF7F7FEA0EB0900652869
:10216000F6D3AEE7FEF7F0FE81463868810306D568
:10217000FEF7EAFEA0EB09006528F6D3A1E7287870
:10218000810713D5042C04D00C2C08BFB8F1020F22
:1021900022D13868410502D5E8680028A5D07868C2
:1021A000296920F0FE4040EA016078602878010744
:1021B00043D568690028706830D040F00100706035
:1021C000FEF7C2FE80467068810736D4FEF7BCFE7B
:1021D00000F061F9F7D374E7E86878B1396841F441
:1021E00080713960FEF7B0FE804638684105D6D46C
:1021F000FEF7AAFE00F04FF9F7D362E7386820F443
:1022000080703860FEF7A0FE804638684105CDD565
:10221000FEF79AFE00F03FF9F7D352E7400840007E
:102220007060FEF791FE80467068810705D5FEF765
:102230008BFE00F030F9F7D343E72878410767D5E4
:10224000B86DC1004FF000080AD4B86D40F080505E
:10225000B8654FF00108B86D00F08050009000980C
:10226000DFF85895D9F80000C10513D4D9F800005B
:1022700040F48070C9F80000FEF766FE8246D9F887
:102280000000C10506D4FEF75FFEA0EB0A0003289C
:10229000F5D316E7A868012804D1306840F00100A2
:1022A000306010E00528306806D140F0040030604E
:1022B000316841F0010105E04008400030603168BC
:1022C00021F004013160A86841F2893960B1FEF75C
:1022D0003BFE82463068810713D4FEF735FEA0EB43
:1022E0000A004845F6D3ECE6FEF72EFE824630683B
:1022F000810706D5FEF728FEA0EB0A004845F6D375
:10230000DFE6B8F1000F03D0B86D20F08050B8655B
:102310002878810621D5686A0028B0680ED040F080
:102320000100B060FEF710FE8046B068810714D44B
:10233000FEF70AFE00F0AFF8F7D3C2E6400840000F
:10234000B060FEF701FE8046B068810705D5FEF754
:10235000FBFD00F0A0F8F7D3B3E6A86A002800F070
:102360009780022874D1F868EA6A00F0030191426C
:1023700001BF00F0F0012A6B521EB1EB021F1BD10E
:102380006A6B00F4FE41B1EB022F02BF00F078410E
:10239000AA6BB1EBC26F0FD1EA6B520800F4C00117
:1023A000521EB1EB425F07D1296C490800F0C060B2
:1023B000491EB0EB416F47D00C2C4AD03868410120
:1023C00001D43868C1003FF590AE386820F08070C5
:1023D0003860FEF7B9FD04463868810105D5FEF77F
:1023E000B3FD001B0328F7D36BE6F868DFF8D013C2
:1023F000EA6A0840296B1043491E40EA0110EA6B63
:10240000696B520840EA0120296C521E490840EAD3
:102410004250491E40EA4160A96B40EAC160F86041
:10242000386840F080703860F96841F08071F96078
:10243000FEF78AFD04463868810129D4FEF784FD41
:10244000001B0328F7D33CE63868810120D4E7E776
:102450000C2C3FF44AAE386820F080703860396840
:1024600011F0205F03D1F86880088000F860F968F7
:10247000DFF850030140F960FEF766FD0446386856
:10248000810105D5FEF760FD001B0328F7D318E690
:102490000020BDE8F687A0EB0800032870473868E5
:1024A00040F0080038603968286A21F0F0010143E3
:1024B00039607968E86921F47F4141EA0021796057
:1024C00070472DE9F84304460026002C60D0DFF861
:1024D000F8522868884600F00F00404502D200F00C
:1024E000B8F855D12168DFF8C072C80778D56068A0
:1024F000DFF8D892032841D13868820148D5F868BE
:10250000002200F0030001280FD13868020705D42B
:10251000DFF8A0020268C2F3032002E03868C0F3CB
:102520000310DFF8AC2252F82020F86800F0030016
:10253000022804D0032804D1DFF8982201E0DFF854
:102540009822FB68F868D7F80CC0C0F30620424315
:10255000C3F30310401CB2FBF0F0CCF34162521CF9
:102560005200B0FBF2F0484520D3BA6812F0F00FE9
:1025700015D089071AD5A068C0B910E0022802D189
:102580003868810303E00028386802D1810702D44B
:102590003EE041053CD500F071F8484506D3B868E7
:1025A00020F0F00040F08000B8608026B9686068D4
:1025B000890840EA8101B960FEF7C6FC8146B86827
:1025C000616800F00C00B0EB810F09D0FEF7BCFC95
:1025D000A0EB090041F289318842F0D3032036E0B4
:1025E0002078810706D5BA68A06822F0F00202437D
:1025F000BA6005E0802E03D1B86820F0F000B86022
:10260000286800F00F00804504D200F022F801D0C5
:1026100001201CE02078410705D5BA68E06822F463
:10262000E0620243BA602178080706D5B9682069DC
:1026300021F4605141EAC001B96000F01FF800F0D8
:1026400012F8BDE8F2435A48006800F01FB9BDE82F
:10265000F2832968090948EA01112960286800F015
:102660000F0040457047BA685C49C2F30312895CA9
:102670004E4A01F01F01C8401060704770B54A4AC9
:10268000544B9068D6680025002110F00C0006F02D
:102690000306514C03D00C2812D1012E1AD1156813
:1026A0002E0704D4434D2E68C6F3032502E01568B7
:1026B000C5F30315464E56F8255048B9294624E07F
:1026C000042808BF214620D008281ED119461CE046
:1026D0000C281AD1D06800F00300022803D0032888
:1026E00008BF1D4600E02546D168D068D268C0F317
:1026F00006204543C1F30310C2F34161401C491C4D
:10270000B5FBF0F04900B0FBF1F1084670BD274879
:10271000334A006813683349C3F3022206E02348B2
:102720002F4A006813682F49C3F3C222895C01F065
:102730001F01C84070477CB52B4E05463068002409
:10274000C10002D500F0C4F80EE0306840F08050BF
:102750003060316801F080510091009800F0B8F8C5
:10276000316821F080513160B0F5007F04D1802DB7
:1027700009D9A12D06D301E0802D01D3022402E066
:10278000702D00D1012410480168090944EA0111A3
:102790000160006800F00F00A04201D0012076BD6A
:1027A000002076BD00000000001002400C00002058
:1027B0000800002094100240901002400070004079
:1027C0000C809D01FFFFEEFE0020024001B4C40416
:1027D0004443000800366E010024F400344300082E
:1027E00008100240E04400085810024062F30F2233
:1027F00062F31F42401810F0030308D0C91A1FD318
:10280000DB0748BF00F8012D28BF20F8022D130078
:1028100030B414461546103928BF20E93C00FAD8D8
:10282000490728BF20E90C0048BF40F8042D890063
:1028300028BF20F8022D48BF00F8012D30BC70479A
:10284000C91818BF00F8012DCB0728BF00F8012DCB
:10285000704730B4002513E050F8042BD30744BF71
:10286000A9F101039A18091F042942F8045BFAD25E
:1028700013468C0744BF15809B1CC90748BF1D70B9
:1028800050F8041B0029E7D130BC704770B50E4EDC
:10289000044630780025A0B14FF47A710B4AB1FBA1
:1028A000F0F11068B0FBF1F000F0B9F848B9102C65
:1028B00007D2002221464FF0FF3000F087F8B460C5
:1028C00000E00125284670BD000000200C0000201B
:1028D000DFF8B400016801F4C061B1F5806F02D186
:1028E0004FF480607047DFF8A4000168CA0502D584
:1028F0004FF4007070470020704710B53222DFF8A7
:102900009030DFF88840DFF8801048B900F01EF8FA
:1029100020F48070206017D100F01FF80CD413E071
:10292000B0F5007F0AD100F011F840F4807020600B
:102930000AD100F012F807D5032010BD0A6822F46E
:10294000C06242F480620A60002010BD086800F492
:10295000C060B0F5806F206870470C6824F4C064D4
:1029600044F400740C601868DFF828304243B2FB6E
:10297000F3F0401C00E0401E4A69530501D50028D1
:10298000F9D14869410570470070004080700040EF
:102990000C00002040420F000901020002D42A4826
:1029A00081547047294B02F00F021A4402F8041CAC
:1029B0007047274B19684FF6FF020002114000F4E0
:1029C000E0600843234908431860704770B5204B06
:1029D0001C68C4F302230124C3F10705052D2EBF93
:1029E0000F2504FA05F56D1E1E1D072E34BF0023AA
:1029F000DB1E2940994004FA03F3BDE870405B1EDA
:102A00001A401143C8E70000010007D4012200F07A
:102A10001F01114B8A40400943F82020704710B530
:102A2000401EB0F1807F01D3012010BD0B4C6060CF
:102A30000F214FF0FF30FFF7AFFF0021A16007200B
:102A40002060002010BD000000E400E018ED00E070
:102A50000CED00E00000FA0500E100E010E000E00D
:102A600038B504000BD004F18005696819B900F08D
:102A700032F800F028F800F00DF8012801D101200B
:102A800032BDA06A08B100F032F800F014F821F06D
:102A90002A0109E02420686020680168490849008B
:102AA0000160204600F082B9816000F019F8BDE8AD
:102AB000324000F028BB2068416821F49041416019
:102AC000206881687047286C10B9DFF83C102964D1
:102AD0002046296C084700202870204600F03FB9A6
:102AE0002068016841F001010160204670472046DE
:102AF00000F0A6BA816821F040018160704720682B
:102B000081684A0670470000E73D0008F8B50446B2
:102B100040F60F002668F1693268B368084004F196
:102B20005C050ED1880602D5970602D4D80040F184
:102B300080806969002900F011812046BDE8F440D9
:102B40000847DFF8E006034204BFDFF8DC763A42CC
:102B50006FD0CF0707D5D70505D5012737622E6B74
:102B600046F001062E638E0708D5DF0706D52768D5
:102B700002263E622E6B46F004062E634E0708D5F1
:102B8000DF0706D5276804263E622E6B46F0020654
:102B90002E630E070AD5970601D4034206D0266895
:102BA00008203062286B40F008002863080509D52A
:102BB000560107D527684FF400603862286B40F053
:102BC00020002863286B002832D0880607D591069C
:102BD00001D4D80003D5696909B120468847286B1C
:102BE00021688A68510602D410F0280F1BD02046B5
:102BF00000F0FEFAFFF783FF10D5FFF77BFF286A8E
:102C000060B10FF22D618163286A00F085FB002816
:102C10000ED0286A816BBDE8F44008476A6C2046F4
:102C2000BDE8F2401047696C2046884700202863C1
:102C3000F1BD2869012856D1C80654D5D70652D50A
:102C40001020306222689068410629D5296A0868F8
:102C5000406880B20028EBD02B889842E8DA688080
:102C6000086801688B0617D4106820F48070106023
:102C7000206881684908490081602068FFF73AFFB1
:102C80002020E862002129612068026822F01002F9
:102C90000260286A00F00CFB29886888091A1CE089
:102CA00028886988411A688800281CBF88B20028D3
:102CB00054D0106820F4907010602268DFF87C0314
:102CC0009368034093602022EA62002028616861D3
:102CD0002068036823F01003036020462A6EBDE8D5
:102CE000F84089B21047C80209D55F0207D54FF4F2
:102CF000801030622046696DBDE8F4400847080640
:102D000009D5170601D4180205D5A96931B32046A3
:102D1000BDE8F440084748060ED553060CD5306888
:102D200020F0400030602021A9620020A8612046E8
:102D3000A96BBDE8F4400847080206D5530004D546
:102D4000E96D2046BDE8F4400847C80148BF002AA5
:102D500004D5AA6D2046BDE8F2401047F1BDDFF86A
:102D6000E414DFF8E424DFF8E43440F8901F426014
:102D70008360DFF8DC14DFF8DC24C1600261DFF877
:102D8000D814DFF8D82441618261DFF8D414DFF869
:102D9000D424C1610262DFF8D014DFF8D02441628C
:102DA00082620149C162704751460008F8B5044685
:102DB000DFF8BC042268DFF8BCE41368A168DFF820
:102DC000B874034020690B4361690343E0690B4316
:102DD0000343136000255168E06821F4405101432A
:102DE0005160A36994498A421CBF206A03439668D4
:102DF000DFF888040640334393600FF29C46D36AA1
:102E0000606A1B0940EA0313D3627245DFF870045D
:102E10004FF400433FD13F6807F00307032F48D822
:102E2000DFE807F0028A799E4FF0010CE169B1F505
:102E3000004F4FF6F07740F0C680BCF1000F0FD086
:102E4000BCF1010F00F0B780BCF1020F0CD0BCF157
:102E5000040F00F0B380BCF1080F00F0B280DFE097
:102E6000FFF755FC002815D0626A616836F8123009
:102E7000B0FBF3F04A0802EB4002B2FBF1F080B283
:102E8000A0F11001B942EAD20740C0F34200074363
:102E90002068C760C5E0DFF8ECC362452CD13F680D
:102EA00017F00C076ED0042F46D0082F33D00C2F0C
:102EB00056D04FF0100C8A42B8D1BCF1000F09D0A7
:102EC000BCF1020F0AD0BCF1040F5DD0BCF1080FB9
:102ED0005DD0A5E0FFF71BFC0028DBD0616A36F867
:102EE0001120B0FBF2F6626802EB42018E4202D37F
:102EF0001303B3424DD293E0DFF88CC362450DD18A
:102F00003F6817F030073DD0102F15D0202F02D08A
:102F1000302F25D0CDE74FF0020CCCE7DFF86CC3A3
:102F200062450CD13F6817F0C0072BD0402F03D06B
:102F3000802FF0D0C02FECE74FF0040CBBE7DFF898
:102F400050C362450FD13F6817F440771AD0B7F5E8
:102F5000807FF1D0B7F5007FDDD0B7F5407FA8D1F5
:102F60004FF0080CA7E78A42A3D13F6817F44067E7
:102F700008D0B7F5806FDFD0B7F5006FCBD0B7F5CD
:102F8000406FC6E7AC4696E7FFF778FBA4E7184624
:102F9000A4E75008002110EB062051EB1661002336
:102FA00000F0F0F9A0F54076DFF8E872BE4237D2C3
:102FB0002168C86035E0FFF7B2FB53E7FFF75EFB1F
:102FC00050E7184650E7BCF1000F0CD0BCF1010FE0
:102FD0001ED0BCF1020F09D0BCF1040F1BD0BCF114
:102FE000080F1BD01CE0FFF792FBD0B1626A36F8E5
:102FF00012306168B0FBF3F000EB5100B0FBF1F070
:1030000080B2A0F11001B9420AD22268D06008E073
:10301000FFF785FBE9E7FFF731FBE6E71846E5E751
:10302000012504F1680001210023418001808360B3
:10303000C3602846F2BD000000800040FEFFFFEFA5
:1030400090F82810CA0706D502685368C16A23F4AD
:1030500000330B43536090F828108A0706D50268A6
:103060005368016B23F480330B43536090F82810AE
:103070004A0706D502685368416B23F480230B434B
:10308000536090F828100A0706D502685368816BD0
:1030900023F400430B43536090F82810CA0606D56A
:1030A00002689368C16B23F480530B43936090F8DC
:1030B00028108A0606D502689368016C23F4005331
:1030C0000B43936090F828104A0610D502685368A5
:1030D000416C23F480130B435360436CB3F5801FA2
:1030E00005D15368816C23F4C0030B43536090F8FF
:1030F00028100A0606D501684A68C06C22F400222E
:1031000002434A607047F8B5044604F18005002088
:10311000E8606FF07E47FDF717FF064620680168FC
:103120000A0708D50097334600224FF400112046C5
:1031300000F017F860B9206801684A070AD50097BF
:10314000334600224FF48001204600F00AF808B10F
:103150000320F2BD20206860A8600020E06628708F
:10316000F2BD2DE9F041069C05460E4690461F46ED
:103170002868C1693140B1420CBF012000204045A0
:1031800029D114F1010FF3D0FDF7DEFEC01B8442FC
:1031900000D35CB92868016821F4D071016000F0A7
:1031A0001CF8002101700320BDE8F0812868016847
:1031B0004A07DDD5C1690A05DAD54FF4006101621D
:1031C0002868026822F4D0720260002200F005F83C
:1031D000C1600270E7E70020E6E7286881684908D7
:1031E0004900816005F180002021416081607047C5
:1031F00001680A6822F490720A600C4902689368B8
:103200000B409360C26E012A04D101680A6822F063
:1032100010020A602021C0F888100022C2660267EE
:10322000704700000100001020010004FEFFFFEFC6
:10323000806A00F1560100220A810A80D0F8A010AD
:10324000084700006344000809440008AD44000832
:103250006F440008DF4400084B4600084D46000854
:103260004F460008853D00085346000855460008B3
:10327000F369FFCF0038014088100240FFF4FF11CE
:103280000024F4000044004000480040004C00408E
:103290000050004000FD0F00010002000400060085
:1032A00008000A000C00100020004000800000010F
:1032B00000F124014A78022A05D004208861002206
:1032C0000A70012070470268136823F00E03136030
:1032D0004A6A136823F48073136000680268520816
:1032E00052000260012091F82020CB6902F01C02FC
:1032F000904058608A6AC86A5060086B30B10268B2
:1033000022F4807202604A6B886B50600120487022
:1033100000220A700020704738B500F12402002412
:103320005178022903D004209061012428E001682B
:103330000B6823F00E030B6001680D686D086D00CB
:103340000D60516A0B6823F480730B60012192F8C1
:103350002030D56903F01C0399406960936AD16AF3
:103360005960116B31B10B6823F480730B60536BA0
:10337000916B5960012151701470516901B18847F6
:10338000204632BDD3BBD9B1B2F5803F5BD2022A11
:103390001ED98C46B1FBF2F102FB11C31B0443EAB8
:1033A0001043B3FBF2FC02FB1C3380B240EA034340
:1033B000B3FBF2F002FB103240EA0C4000237047EE
:1033C000022A05D98446B0FBF2F002FB10C2704716
:1033D0004AB105D100F0010249085FEA30007047A8
:1033E00000220023704700F067B80B0002000021A4
:1033F00000207047F7D3002200237047904271EB02
:10340000030CF2D370B5B1FA81F4B3FA83F52C1B37
:10341000A340C4F1200532FA05F63343A2405FF021
:103420000046E64002E05B085FEA3202841A71EB74
:10343000030524BF204629467641F4D302000B0041
:103440003000002170BD70B5B1FA81F4B2FA82F596
:10345000C4F120046419B4F12006DAD3B2405FF05D
:103460000044F440002502E052085FEA3303C61A24
:1034700071EB020E24BF3046714664416D41F3D3B7
:1034800002000B002000290070BD30B40EE002687D
:10349000436802440830DC0744BFA9F10104E31883
:1034A00052F8045B43F8045B091FF9D150F8041B80
:1034B0000029ECD130BC70477047704741780078E4
:1034C00007E0C178827842EA01224178007841EA37
:1034D000022140EA0120704730B50021DFF8402189
:1034E00000250B01D458844208BFD550491C01293E
:1034F000F7D930BDF8B505460024E878A0B12E6BA9
:1035000000F014F808B101240EE0E870696AE86977
:10351000711A814208D2AF7804E0E869861900F098
:1035200005F87F1E012FF8D82046F2BD68780123E8
:10353000324605F1340100F013BA70B504460D4669
:10354000206B0026854210D02046FFF7D3FF0600EF
:103550000BD1607801232A4604F1340100F0FAF916
:1035600010B14FF0FF3501262563304670BD03468C
:103570004FF0FF301A68002A00D1704710B514468A
:1035800000E0641C2178212901D33A29F9D13A2994
:103590000CD112F8011B30390A2908D2A24208BF07
:1035A000002904D1611C0020196010BD002010BD4D
:1035B00010B5044600224FF0FF33E2702363FFF79B
:1035C000BCFF08B1042010BD04F23220FFF776FFE3
:1035D0004AF65521884201D0032010BD04F1340081
:1035E0000178E92904D0EB2904BF8078902813D111
:1035F00004F16A00FFF765FF20F07F40DFF8101349
:10360000884207D004F18600FFF75BFFDFF8041360
:10361000884201D1002010BD022010BD0000000032
:10362000FC1200202DE9FF410E46002131601446B6
:10363000FFF79DFF070048BF0B2007D4DFF8D882B3
:1036400008F1040050F827500DB90C2026E1356030
:1036500004F0FE04287848B1687800F05FF9C107EB
:1036600004D4002C01D040070DD416E100202870AE
:103670006F70687800F05BF9C10748BF032003D47E
:103680001CB1400701D50A2008E1687805F10C0259
:10369000022100F073F990BBA889A0F5007140F6F3
:1036A000016291422BD2411E084228D100212846B6
:1036B000FFF77EFF002702281FD1002405EB04112D
:1036C00001F5F971087918B101F10800FFF7F9FE69
:1036D0004DF82400641C042CF0D300265DF826402D
:1036E00024B121462846FFF763FF00E003200128AC
:1036F00002DD761C042EF1D32746042801D10120D7
:10370000CCE0012817DC05F13F00FFF7D7FEA989BF
:10371000884210D105F14A00FFF7D0FE18B905F133
:103720005800FFF7CEFE05F14101E861CA78AA70A2
:10373000012A18BF022A71D15043064608786881D1
:1037400001006BD0421E104268D105F14500FFF721
:10375000B5FEA9892881490990FBF1F201FB12000D
:1037600000285BD105F14700FFF7A8FE040004D153
:1037700005F15400FFF7A5FE044605F14200FFF7EE
:103780009DFE00284AD0AA8929894FEA521E331883
:1037900091FBFEF2D3189C4240D3B5F80AC0E41A5C
:1037A000B4FBFCF2002A39D003244FF6F67C6245C4
:1037B00038BF022440F6F67C624538BF0124921CD3
:1037C000C019DB19032CAA612F626862EB620FD16A
:1037D00005F15E00FFF772FE002804BF288900286B
:1037E0001CD105F16000FFF76CFEA96989000CE0AF
:1037F000A1B1686AA9693018022C0FBF490001EB1A
:10380000410201F0010101EB5201A862A889421EA8
:103810005118B1FBF0F0E969814201D20D203DE081
:103820004FF0FF30686128618020032C28712AD175
:1038300005F16400FFF742FE012824D1791C00F055
:1038400033F800BB287105F23220FFF737FE4AF645
:103850005521884217D105F13400FFF732FE2A497D
:10386000884210D105F50670FFF72BFE27498842E4
:1038700009D105F50770FFF724FE686105F50870AA
:10388000FFF71FFE28612C70B8F80000401CA8F854
:103890000000E8802846FFF71FFE002004B0BDE8C6
:1038A000F081B8FBF0F041182846FFF746BE73B52B
:1038B00082B0154600916846FFF759FE002848BFC0
:1038C0000B201ED4144901EB8006746824B12046F5
:1038D000FFF702FE00212170029810B900217160EB
:1038E00008E0029900200870029A7260029808B1FC
:1038F000012D01D0002004E0002202A903A8FFF757
:1039000091FE04B070BD000052526141727241617B
:1039100046415400464154333013002001461E4AAC
:10392000531802EB81014A68187A516808471A4B0C
:1039300002460020995C002900D0704710B5012490
:103940009C5403EB82019C184A68207A1368BDE8F6
:103950001040184770B500F009F8AC68A04770BD7A
:1039600070B500F003F8EC68A04770BD04460A4D3E
:103970002E1905EB84046568307A704738B5034624
:10398000054CE51804EB83035C68287A236901B0D1
:10399000BDE83040184700001C1300202DE9F84F07
:1039A00000276C4A6C4B4FF00F0805460E4634E07A
:1039B0006A4CA54214BF082407248C40684944EA95
:1039C0000E0441F82C40C143146801EA040C7468E9
:1039D000E40348BF40EA0C0CC2F800C0546801EA96
:1039E000040C7468A40348BF40EA0C0CC2F804C07D
:1039F000946801EA040C7468E40248BF40EA0C0CC5
:103A0000C2F808C0D46801EA040C7168890248BF92
:103A100040EA0C0CC2F80CC07F1C316831FA07F088
:103A200000F08F800124BC4014EA0100F4D04FEA7A
:103A3000470C032101FA0CF16FEA010E71680129AC
:103A400018BF022903D0112918BF122912D1A96861
:103A5000D6F80C900EEA010109FA0CF949EA0101C5
:103A6000A960696821EA04047168C1F30011B940D2
:103A70000C436C60E968B4680EEA010104FA0CF4C6
:103A80002143E960B9007468022C18BF122C12D1CE
:103A9000FC0805EB840401F01C09D4F820A008FA06
:103AA00009FB2AEA0B0AD6F810B00BFA09F949EA21
:103AB0000A09C4F820902C680EEA040E347904F048
:103AC000030404FA0CF444EA0E042C607468E40065
:103AD000A2D51C6844F001041C604FEA970C1C68D6
:103AE00004F00104009401F00C01009C1C4C54F8FB
:103AF0002C4008FA01FE24EA0E0EB5F1904F08BFE3
:103B000000241DD0174CA54208BF012418D0164C24
:103B1000A54208BF022413D0144CA54208BF0324B9
:103B20000ED0134CA54208BF042409D0114CA54265
:103B300008BF052404D0104CA5427FF439AF0624F9
:103B40003BE7BDE8F18F0069084018BF0120C0B213
:103B5000704700000004014060100240001C004853
:103B6000080001400004004800080048000C00481C
:103B70000010004800140048001800483D483E4925
:103B8000016000224FF4804142608260C1600261A6
:103B90000321012241618261704710B586B004465D
:103BA000142200216846FEF72DFA2168324881422E
:103BB00051D13248324C016841F480010160026801
:103BC00002F4800205920599026842F00402026044
:103BD000036803F0040305930599026842F00802A4
:103BE0000260036803F0080305930599026842F038
:103BF00002020260C021006800F00200059002226B
:103C0000059800910192002102910322082104915C
:103C1000039269462046FFF7C1FE00F025F84FF4F5
:103C2000F85000F01AF82046FFF7B8FE00F01CF834
:103C3000042000F012F81348FFF7B0FE00F014F86B
:103C40004FF44070032100900391082204926946CA
:103C50000D48FFF7A3FE06B010BD032100900391AD
:103C60000C220492694670470221019100220292BF
:103C700070470000B4110020002406504C10024090
:103C800000080048000C00480004004810B500F18E
:103C900080010A78012A01D1022010BD01220A7098
:103CA00024234B600268136814686408640014607D
:103CB0000022426623F000530068036020224A601D
:103CC00000230B70002010BD70B500F01FF801D16B
:103CD000022070BD00F020F822F0604209E070B5CB
:103CE00000F014F801D1022070BD00F015F822F0A8
:103CF000606211438160204600F01CF82068066075
:103D00002021696000222A70002070BD044604F161
:103D100080052878012870470120287024226A60D5
:103D200020680668026852085200026020688268B3
:103D30007047000030B5416E11B90121012214E035
:103D4000016800BF0BA48A68D1F808100BA3520EBB
:103D500002F00702490F655CA45C595C9A5CED00B7
:103D6000E40095FBF1F194FBF2F2683041800280AF
:103D700030BD000001010103070100000804020436
:103D8000080101017047704710B5334C334820607B
:103D90004FF416510C20002260616160A260E26065
:103DA0002261A261E26122626262A2622046FEF7A3
:103DB00057FE08B100F0B8F800212046FFF784FF55
:103DC00008B100F0B1F800212046FFF788FF08B1E4
:103DD00000F0AAF82046FFF759FF18B1BDE81040DF
:103DE00000F0A2B810BD10B586B004461422002120
:103DF00001A8FEF707F92168184881422AD118481E
:103E0000416941F480414161416901F4804100917F
:103E10000099026842F0010202604FF4C06100683C
:103E200000F001000090022200980191029200210E
:103E30000391032207210591049201A94FF09040BC
:103E4000FFF7ACFD002200212520FEF7BFFD252055
:103E5000FEF7DAFD06B010BDEC100020003801407E
:103E60004C10024080B500F061F800F00DF800F051
:103E70006DF8FFF783FE00F0ADF8FFF785FF00F067
:103E8000B5F800F0F6F8FEE700B5BBB0442105A890
:103E900000F01AF91421684600F016F9942116A8CA
:103EA00000F012F94FF40070FEF727FD08B100F0A2
:103EB0003BF8022105914FF480724021089209914C
:103EC000022219210F9210921192129108220221BE
:103ED00013921491159105A8FEF79EF808B100F011
:103EE00023F8012101910F204FF4806100900022FE
:103EF00003910292049200216846FEF7E2FA08B1AB
:103F000072B6FEE70748169001214FF480422591D2
:103F1000349216A8FDF71EF808B172B6FEE73BB062
:103F200000BD00000100080072B6FEE7032010B5D6
:103F3000FEF73FFD0020FEF7A9FC0024002814BF77
:103F4000012400F0C5F8204610BD704780B586B04A
:103F50001422002101A8FEF755F81C48016841F021
:103F600080010160026802F08002009200990268FC
:103F700042F004020260036803F004030093009916
:103F8000026842F001020260036803F0010300933B
:103F90000099026842F008020260036803F0080317
:103FA00000930099026842F0020202600121006859
:103FB00000F0020000900022009805480191029252
:103FC000039201A9FFF7EAFC07B000BD4C100240C4
:103FD000000C004810B5034C0348211D00F0ACF85C
:103FE000207010BD2813002084440008194800F1F7
:103FF0005401021DC164026517480068816841F0E0
:1040000001018160026842F02002026070470128CD
:1040100000DA704730B50F490A6D136C5B1C03F072
:104020003F03546CA342FCD0156C5055086D0A49EF
:1040300003640868026842F08002026030BD10B577
:10404000044603E014F8010BFFF7E1FF2078002895
:10405000F8D110BD60120020EC1000208021DFF8A4
:10406000400000F031B880B5FFF7E9FFBDE801403E
:10407000F4E710B5DFF82440012207A104F19C0009
:10408000FFF715FC20760028BDE8104014BF0FF2A2
:104090001800DFF81000E6E72F00000014000020F1
:1040A000300000209C4300086572726F7220696EB8
:1040B000206D6F756E74696E6720534420434152C2
:1040C000442E2E2E0A000000002200F039B870475E
:1040D0000A4881B0816841F001018160816801F086
:1040E000010100910099026842F08052026000686C
:1040F00000F080500090009801B0704758100240C6
:1041000070B50E4D6B7A04460120A3B96B7A00207E
:10411000E854687A05EB80067460687A2844027275
:10412000687A421C6A72303008702F223A20487038
:104130008A700020C87070BD0022E1E71C130020C7
:1041400000B500BF130096469446103928BFA0E87A
:104150000C50FAD85FEA417C28BF0CC048BF40F839
:10416000042BC90728BF20F8022B48BF00F8012BF9
:1041700000BD704710B52D4C0120207000F058F89C
:1041800018B9207800F0FE002070207810BD38B5F6
:104190000446264D0120287000F056F818B9204634
:1041A000FFF7E8FF2870287832BDE3E7084611469C
:1041B00010B51A464FF0FF3300F05EF807E00846EE
:1041C000114610B51A464FF0FF3300F065F8012490
:1041D00020B900F02DF80028FBD10024204610BDA6
:1041E00018B5124889B014460278D30748BF032097
:1041F00019D4032916D8DFE801F01302070D684629
:1042000000F05AF806980AE0684600F055F807985A
:10421000208005E0684600F04FF80798400A2060CB
:10422000002000E004200AB010BD000010000020B3
:1042300080B50448FCF7D6FD042801D1002002BD5A
:10424000012002BDB411002038B500F03BF8012870
:1042500001D0022032BD074C2046FBF7AFFF05001E
:1042600006D14FF480412046FCF7EFFC00B1012558
:10427000284632BDB41100201CB50093002413461B
:104280000A4601460348FCF751F900B101242046D3
:1042900016BD00BFB41100201CB5009300241346C6
:1042A0000A4601460348FCF7F7F900B1012420460D
:1042B00016BD00BFB411002001460148FCF7B3BC95
:1042C000B411002080B501208DF8000000F006F840
:1042D00008B98DF800009DF8000002BD10B501215D
:1042E0000348FFF730FC012400B10024204610BD34
:1042F000000C00480C48016841F470010160002284
:104300000A49086840F0010008608A604FF4805252
:104310000B68074803400B60CA6000200B6823F459
:1043200080230B608861704788ED00E00010024038
:10433000FFFFF6EA00000000000000000102030495
:1043400006070809A0860100400D0300801A060038
:1043500000350C0040420F0080841E0000093D0023
:1043600000127A000024F40000366E010048E801D3
:10437000006CDC0210B5074979441831064C7C44C6
:10438000163404E00A68081D114488470146A1421A
:10439000F8D110BD500000007000000053442043CD
:1043A000415244206D6F756E74656420737563634C
:1043B00065737366756C6C792E2E2E0A00000000F2
:1043C0004EF68851CEF20001086840F47000086093
:1043D000BFF34F8FBFF36F8F4FF00070E1EE100A05
:1043E000704700006FE4FFFF24130000140000205A
:1043F0000000000097F0FFFF140000009C00000088
:10440000000000200000000070470000FEE7FEE70B
:10441000FEE7FEE7FEE770477047704700F006B81A
:104420000148FEF773BB0000EC1000200248416811
:1044300002788A18426070470000002000F00DF8F2
:10444000002801D0FFF796FFAFF300800020AFF304
:104450000080FFF707FD00F002F80120704700F030
:1044600001B870470746384600F002F8FBE770478E
:1044700080B5AFF30080024A11001820ABBEFBE705
:10448000260002008F410008AB410008AD41000842
:10449000BF410008E14100080100000000000000E9
:1044A0001000000000093D000100000070470000FE
:1044B0000148804701480047F5420008D3440008FE
:1044C00000F004B800F003B800F002B8704770477D
:1044D0007047AFF30080FFF773FFFFF7AFFF704740
:1044E0000000000001020304FFF7FEBFFFF7FEBF5C
:1044F000FFF7FEBFFFF7FEBFFFF7FEBFFFF7FEBFF0
:10450000FFF7FEBFFFF7FEBFFFF7FEBFFFF7FEBFDF
:10451000FFF7FEBFFFF7FEBFFFF7FEBFFFF7FEBFCF
:10452000FFF7FEBFFFF7FEBFFFF7FEBFFFF7FEBFBF
:10453000FFF7FEBFFFF7FEBFFFF7FEBFFFF7FEBFAF
:10454000FFF7FEBFFFF7FEBFFFF7FEBFFFF7FEBF9F
:10455000FFF7FEBFFFF7FEBFFFF7FEBFFFF7FEBF8F
:10456000FFF7FEBFFFF7FEBFFFF7FEBFFFF7FEBF7F
:10457000FFF7FEBFFFF7FEBFFFF7FEBFFFF7FEBF6F
:10458000FFF7FEBFFFF7FEBFFFF7FEBFFFF7FEBF5F
:10459000FFF7FEBFFFF7FEBFFFF7FEBFFFF7FEBF4F
:1045A000FFF7FEBFFFF7FEBFFFF7FEBFFFF7FEBF3F
:1045B000FFF7FEBFFFF7FEBFFFF7FEBFFFF7FEBF2F
:1045C000FFF7FEBFFFF7FEBFFFF7FEBFFFF7FEBF1F
:1045D000FFF7FEBFFFF7FEBFFFF7FEBFFFF7FEBF0F
:1045E000FFF7FEBFFFF7FEBFFFF7FEBFFFF7FEBFFF
:1045F000FFF7FEBFFFF7FEBFFFF7FEBFFFF7FEBFEF
:10460000FFF7FEBFFFF7FEBFFFF7FEBFFFF7FEBFDE
:10461000FFF7FEBFFFF7FEBFFFF7FEBFFFF7FEBFCE
:10462000FFF7FEBFFFF7FEBFFFF7FEBFFFF7FEBFBE
:10463000FFF7FEBFFFF7FEBFFFF7FEBFFFF7FEBFAE
:10464000FFF7FEBFFFF7FEBF704770477047704728
:064650007047704770473F
:04000005080044D3D8
:00000001FF
