:020000040800F2
:10000000D82700204D7A0008D5790008D779000854
:10001000D9790008DB790008DD79000800000000CC
:10002000000000000000000000000000DF79000870
:10003000E179000800000000E3790008E579000894
:100040008D7A0008917A0008957A0008997A00085C
:100050009D7A0008A17A0008A57A0008A97A00080C
:10006000AD7A0008B17A0008B57A0008B97A0008BC
:10007000BD7A0008C17A0008C57A0008C97A00086C
:10008000CD7A0008D17A0008D57A0008D97A00081C
:10009000DD7A0008E17A0008E57A0008E97A0008CC
:1000A000ED7A0008F17A0008F57A0008F97A00087C
:1000B000FD7A0008017B0008057B0008097B000829
:1000C0000D7B0008117B0008157B0008197B0008D8
:1000D0001D7B0008E9790008217B0008257B0008CA
:1000E000297B00082D7B0008317B0008357B000848
:1000F000397B00083D7B0008417B000800000000C0
:10010000457B0008497B00084D7B0008517B0008B7
:10011000557B0008597B00085D7B0008617B000867
:10012000657B0008697B00086D7B0008717B000817
:10013000757B0008797B00087D7B0008817B0008C7
:10014000857B0008897B00088D7B0008917B000877
:10015000957B0008997B00089D7B0008A17B000827
:10016000A57B0008A97B0008AD7B0008B17B0008D7
:10017000B57B0008B97B000800000000BD7B0008CB
:10018000C17B0008C57B0008C97B0008CD7B000847
:10019000D17B0008D97B00080000000000000000AF
:1001A0000000000000000000D57B0008DD7B000897
:1001B000E17B0008E57B0008E97B000841780078D6
:1001C00007E0C178827842EA01224178007841EA6A
:1001D000022140EA012070470170090A417070470E
:1001E0000170090A4170090A8170090AC1707047DB
:1001F0002AB111F8013B00F8013B521EF9D17047BA
:10020000521E00F8011BFBD17047F0B502460023D7
:100210000024DFF89C5A05EB0416306880B117689B
:10022000B84202BF70689768B84202BFB0685669AA
:10023000B04206D1022C0AD193B9022905D10FE0B0
:100240000123641C022CE6D3F4E71220F0BD29B987
:1002500005EB04108289B2F5807F01D11020F0BD3A
:100260000020F0BDF0B5024694681568DFF8406ADA
:10027000002318013758AF4202BF371D3F58A7422D
:1002800001BF06F1080738585769B84202D05B1C15
:10029000012BEED9022B11D13068002300281EBF9C
:1002A0000123306900280ED1180137183D607C60A9
:1002B00006F10804526922500020B88106EB0312AF
:1002C000908929B108B10020F0BD4FF4807000E0A2
:1002D000401C9081581CF0BD10B5401E022814D25D
:1002E0000001DFF8CC190A189389B3F5807F01D09B
:1002F0001C0002D10023938103E05B1E93819BB21B
:100300000BB900220A50002010BD022010BD30B5EC
:100310000021DFF89C2900250B01D458844208BF36
:10032000D550491C0129F7D930BDF8B50546002440
:10033000E878A0B12E6B00F014F808B101240EE0AB
:10034000E870696AE869711A814208D2AF7804E0FE
:10035000E869861900F005F87F1E012FF8D82046BD
:10036000F2BD68780123324605F1340101F040BB4B
:1003700070B504460D46206B0026854210D02046FD
:10038000FFF7D3FF06000BD1607801232A4604F162
:10039000340101F027FB10B14FF0FF350126256332
:1003A000304670BD38B50446FFF7BFFF050039D1B0
:1003B0002078032804BF207901282CD1A2890021AC
:1003C00004F13400FFF71CFF4AF6552104F23220F5
:1003D000FFF702FFDFF8F41B04F13400FFF700FF22
:1003E000DFF8EC1B04F50670FFF7FAFE616904F50F
:1003F0000770FFF7F5FE216904F50870FFF7F0FEBE
:10040000226A6078521C2263012304F1340101F056
:10041000EFFA0020207100226078002101F0F6FA46
:1004200000B10125284632BD8269891E921E914283
:1004300001D3002070474289C06A02FB01010846CF
:1004400070472DE9F0410C460568022C4DD3A86990
:1004500084424AD2297801294FF0FF3604D044D390
:10046000032936D02AD340E0A889696A04EB5408EE
:1004700000F05FFD002839D1A88908F10107B8FB19
:10048000F0F100FB118805F13402696A12F8088066
:10049000B7FBF0F000F04FFD002827D1A889B7FB8B
:1004A000F0F100FB117705F13400C25D48EA022645
:1004B000E00754BFC6F30B06360917E000F0AFF8AB
:1004C000A0B9A889640000F014F8FFF777FE06468B
:1004D0000CE000F09CF848B9A889A40000F009F8E5
:1004E000FFF76FFE20F0704600E001263046BDE8C1
:1004F000F081B4FBF0F100FB114405F1340020441D
:1005000070472DE9F8430C460227022C0546164693
:100510007AD3A869844277D22978012904D073D389
:10052000032950D03CD36FE0A889696A04EB5409D1
:10053000B9FBF0F000F0FFFC0028074664D1A88961
:1005400009F10108B9FBF0F100FB119905F1340044
:100550004844E20743BF017801F00F0141EA061168
:10056000314601700120E870A889696A00F0E1FC59
:100570000028074648D1A889B8FBF0F100FB118894
:1005800005F13400E207404448BF360906D401783B
:10059000360A01F0F00106F00F060E43067031E056
:1005A00000F03DF8074678BBA8896400B4FBF0F280
:1005B00000FB124405F13400B1B22044FFF70CFEF9
:1005C0000121E97020E000F022F80746E0B9A8898F
:1005D000A400B4FBF0F100FB114005F1340210441B
:1005E000FFF7EFFDAA8926F0704600F0704040EA60
:1005F0000601B4FBF2F002FB104405F134021019BD
:10060000FFF7EEFD0120E8703846BDE8F283AA89C5
:10061000696A9208B4FBF2F041182846A8E6AA8954
:10062000696A5208B4FBF2F041182846A0E6F8B512
:1006300005460F462E68012F114629D9B069874219
:1006400026D229B14FF0FF3200F078F801001ED118
:1006500039462846FFF7F5FE040017D0012C17D0C5
:1006600014F1010F16D0002200F067F801000ED13E
:10067000B0697169821E914205D2491C716131795C
:1006800041F00101317127468742E1D30020F2BDDC
:100690000220F2BD0120F2BD2DE9F04180460C00A0
:1006A000D8F8006006D1356915B1B06985420ED31E
:1006B00001250CE0FFF7C5FE012898BF01203AD9BB
:1006C00010F1010F37D0B169884234D325462F4647
:1006D000B0697F1C874202D30227012D0BD939460E
:1006E0004046FFF7AEFE40B1012818BF10F1010FE0
:1006F00021D0AF42ECD100201DE04FF0FF3200F0DE
:100700001CF890B924B13A46214600F017F860B9B8
:100710003761B1697069891E814224BF401E7061D2
:10072000307940F00100307104E001280CBF4FF037
:10073000FF3701273846BDE8F08139463046E0E60C
:1007400010B50368C06A9C89021D5889B1FBF4F199
:10075000B1FBF0F003E0884206D3401A083211687A
:100760000029F8D1002010BD5168081810BD2DE9EE
:10077000F04105460E462F68B6F5001F2ED216F042
:100780001F0F2BD1AC686E6154B93878032801DB98
:10079000BC6A2CB93989700988421FD2B86A19E03D
:1007A0007989B88900FB01F806E0022C16D3B869F4
:1007B000844213D2A6EB08064645214608D32846B4
:1007C000FFF73FFE044614F1010FEED1012013E0C4
:1007D00000F08BF8E861AC61E86908B902200BE031
:1007E000B989B6FBF1F21018E86101FB1266B8197D
:1007F00000F1340129620020BDE8F0812DE9F041CB
:1008000006460C4675693768F169203531B3B5F590
:10081000001F23D2B889B5FBF0F200FB125000286C
:1008200055D1491CF161B16921B9398968098842FA
:100830004DD311E07889401E024248D13046FFF77F
:1008400000FE8046B8F1010F16D918F1010F34D01F
:10085000B869804536D31CB90020F061042041E01E
:10086000B1693046FFF718FF5FEA000808BF0720AC
:1008700038D0B8F1010F01D1022033E018F1010F97
:100880001BD03846FFF751FDB8B9BA89002107F1EE
:100890003400FFF7B5FC00F027F8002402E0386BC5
:1008A000641C401C38637889844208D20121F970A5
:1008B0003846FFF73AFD0028F1D0012012E0386BEE
:1008C000041B3C63C6F8188000F00EF8F0617561F7
:1008D000B889B5FBF0F100FB115507F13400401960
:1008E00030620020BDE8F081414638469CE570B595
:1008F00004460D4605F11A00FFF760FC2178032934
:10090000064605D105F11400FFF758FC46EA0046FB
:10091000304670BD70B504460D461646B1B205F1BD
:100920001A00FFF759FC2178032905D1310C05F194
:100930001400BDE870404FE470BD70B504460D462C
:1009400026680422E169F1B13046FFF711FD02008B
:1009500019D1216A0878D8B1C97AE52801F03F0198
:100960001CBF2E280F29A17107D021F020010829D2
:1009700014BF00200120A8420CD000212046FFF720
:100980003DFF0200DED0100004D00020E06101E055
:100990000422FAE7104670BDF8B5054600212C6820
:1009A000FFF7E5FE070016D10026E9692046FFF7AC
:1009B000DFFC07000FD1286A0078E5281CBF00285B
:1009C000002602D1761C012E08D001212846FFF70F
:1009D00015FF0700E9D0042F08BF0727380012D100
:1009E000E9692046FFF7C4FC07000CD1286A2022E1
:1009F0000021FFF705FC286A0B2205F12401FFF70F
:100A0000F7FB0120E0703846F2BD38B50446256892
:100A1000E16900F091FA010004D1226AE521117028
:100A20000123EB7032BD70B50C46054600216172A2
:100A3000E86948B3002004F109062A6A525C491C9F
:100A4000202A0BD0052A08BFE522092902D12E232E
:100A50003354401C04F109031A54401C0B29ECD3F5
:100A600004F1090200211154286AC17A21722A6A0C
:100A700002F11C00FFF7A5FB2060286A1630FFF783
:100A8000A0FBE080000CA08070BD2DE9F843044677
:100A90000F46D4F8008000E07F1C38782F2818BF5C
:100AA0005C28F9D00020A06004F1240639782029C0
:100AB0002ED28022F27200212046FFF758FE024615
:100AC00093E03278E52A04BF05203070202DCCBF9A
:100AD00000200420F072002125682046FFF747FE21
:100AE000020072D0F07A11007AD140077DD4A1794A
:100AF000C80679D56069B8F80C10B0FBF1F201FBBB
:100B00001200404400F134014046FFF7F0FEA060BF
:100B10000B2220213046FFF773FB0021002208231F
:100B20000FF2CC0CDFF8B8E60FE009F1010999F8F3
:100B30000000002818BFA842F7D140BBA5F1610012
:100B40001A2838BF203D7554491CBD5C521C202D0D
:100B50001ADD2F2D18BF5C2D11D02E2D09D09942F2
:100B600015D2802DA4BF0EEB050010F8805CE14685
:100B7000DDE70B2B0BD008210B23E6E7521CB85CFA
:100B80002F2818BF5C28F9D00029174499D10622D4
:100B90002BE0C87A236A00F03F00A071D87A0107E1
:100BA0000DD4B4460B2113F801EB1CF8010B491EC0
:100BB000AEEB000001D00028F5D0002892D0002133
:100BC0002046FFF71BFE02008CD1E16900F0B4F96A
:100BD000020087D1216A08780028DAD1042281E74F
:100BE000042A02D1400700D405221046BDE8F28352
:100BF000222A2B2C3A3B3C3D3E3F5B5D7C7F000034
:100C000003464FF0FF301A68002A00D1704710B534
:100C1000144600E0641C2178212901D33A29F9D136
:100C20003A290CD112F8011B30390A2908D2A24204
:100C300008BF002904D1611C0020196010BD0020EC
:100C400010BD10B5044600224FF0FF33E27023635D
:100C5000FFF78EFB08B1042010BD04F23220FFF72D
:100C6000ADFA4AF65521884201D0032010BD04F1A7
:100C700034000178E92904D0EB2904BF807890285A
:100C800013D104F16A00FFF79CFA20F07F40DFF8EF
:100C90005415884207D004F18600FFF792FADFF876
:100CA0004815884201D1002010BD022010BD00006F
:100CB000642300202DE9FF410E46002131601446D7
:100CC000FFF79EFF070048BF0B2007D4DFF81C8505
:100CD00008F1040050F827500DB90C2026E13560CA
:100CE00004F0FE04287848B1687800F05FFEC10780
:100CF00004D4002C01D040070DD416E10020287048
:100D00006F70687800F05BFEC10748BF032003D412
:100D10001CB1400701D50A2008E1687805F10C02F2
:100D2000022100F073FE90BBA889A0F5007140F687
:100D3000016291422BD2411E084228D1002128464F
:100D4000FFF77FFF002702281FD1002405EB0411C5
:100D500001F5F971087918B101F10800FFF731FACE
:100D60004DF82400641C042CF0D300265DF82640C6
:100D700024B121462846FFF764FF00E00320012844
:100D800002DD761C042EF1D32746042801D1012070
:100D9000CCE0012817DC05F13F00FFF70FFAA98925
:100DA000884210D105F14A00FFF708FA18B905F199
:100DB0005800FFF706FA05F14101E861CA78AA7008
:100DC000012A18BF022A71D150430646087868816B
:100DD00001006BD0421E104268D105F14500FFF7BB
:100DE000EDF9A9892881490990FBF1F201FB120074
:100DF00000285BD105F14700FFF7E0F9040004D1BA
:100E000005F15400FFF7DDF9044605F14200FFF754
:100E1000D5F900284AD0AA8929894FEA521E3318E9
:100E200091FBFEF2D3189C4240D3B5F80AC0E41AF5
:100E3000B4FBFCF2002A39D003244FF6F67C62455D
:100E400038BF022440F6F67C624538BF0124921C6C
:100E5000C019DB19032CAA612F626862EB620FD103
:100E600005F15E00FFF7AAF9002804BF28890028D1
:100E70001CD105F16000FFF7A4F9A96989000CE015
:100E8000A1B1686AA9693018022C0FBF490001EBB3
:100E9000410201F0010101EB5201A862A889421E42
:100EA0005118B1FBF0F0E969814201D20D203DE01B
:100EB0004FF0FF30686128618020032C28712AD10F
:100EC00005F16400FFF77AF9012824D1791C00F0BC
:100ED00033F800BB287105F23220FFF76FF94AF6AC
:100EE0005521884217D105F13400FFF76AF93749D7
:100EF000884210D105F50670FFF763F9344988423E
:100F000009D105F50770FFF75CF9686105F5087010
:100F1000FFF757F928612C70B8F80000401CA8F8BA
:100F20000000E8802846FFF7F2F9002004B0BDE891
:100F3000F081B8FBF0F041182846FFF719BA70B5F8
:100F4000044609260D46002C1CBF216800290DD03F
:100F5000087858B1A088CA88904207D1487800F034
:100F600025FDC00702D42068002600E0002028608C
:100F7000304670BD73B582B0154600916846FFF7E4
:100F80003FFE002848BF0B201ED4984901EB800685
:100F9000746824B12046FFF7BAF900212170029845
:100FA00010B90021716008E0029900200870029ACF
:100FB0007260029808B1012D01D0002004E00022E7
:100FC00002A903A8FFF776FE04B070BD525261413A
:100FD000727241612DE9F24104008DB008BF092011
:100FE00000F0FA8002F03F073A4669460DA8FFF785
:100FF00061FE06001DD100980D99019001A8FFF730
:1010000044FD06000DD19DF83300010648BF0626B9
:1010100007D417F0FE0118BF012101A8FFF7F5F86A
:10102000064617F01C0F00F0B080300000F0A380DF
:10103000042E40F0CE806E49086800281EBF086963
:101040000028122603D101A8FFF7A6FC06463000AF
:1010500047F0080735D1380739D500F0F3FC0546CD
:10106000099829460E30FFF7BBF809982946163033
:10107000FFF7B6F809992020C872DDF8248000989F
:101080004146FFF734FC0546009800224146FFF731
:1010900041FC099800211C30FFF7A2F800990120BB
:1010A000C87085B10098D0F8308000F070FC060060
:1010B00007D100984146FFF75BF9064600986D1E80
:1010C0000561300056D1380748BF47F04007009807
:1010D000016B616217F0FE010998A06218BF01213F
:1010E00001A8FFF7BFF80028206142D0099D0098B1
:1010F0002946FFF7FCFBA06005F11C00FFF761F833
:10110000E0604FF480520020E06200992160009876
:10111000C188A180002060750021A061216227752F
:1011200004F13000FFF76CF8B80654D5E568002DDF
:1011300051D0A561009847898089A1684743AF4293
:101140000CD22046FFF77DF9014602292BD311F17D
:10115000010F2BD0ED1B3000F1D025E0E1610098AC
:101160008089B5FBF0F200FB1250A0B300F015FC33
:1011700008BB02262DE09DF80A0010F0110F10D1D7
:1011800078077FF568AF082623E0300099D19DF8F5
:101190000A00C10648BF04261BD4B90793D5C0076F
:1011A00091D5072615E00226E16112E04FF0FF30ED
:1011B0000126E0610DE0009A9189B5FBF1F1081874
:1011C0002062024600984078012300F0EFF910B148
:1011D00001260020206030460EB0BDE8F0810000FE
:1011E000487700084641540046415433C823002044
:1011F000642300202DE9FC471546994600228A46C3
:10120000C9F8002000F09DF8010067D1787D010049
:1012100064D1387DC10758BF07205FD5F868BC6925
:10122000041BAC4237D92C4635E02E180098818932
:10123000B4FBF1F8B8F1000F51D0408908EB05017B
:10124000884238BFA0EB05080098407843463246F4
:10125000514600F0C7FB00286CD1387D01060CD543
:10126000386A861B464508D200998A89564307F199
:1012700030010AEB0600FEF7BBFF0098858908FBEA
:1012800005F5B8692818B861AA44D9F8001069189A
:10129000C9F80010641B002C50D000F019F934D1AB
:1012A00000984289521E154012D109B9B86809E068
:1012B000F86A18B13846FFF743FA03E0F96938468F
:1012C000FFF7BFF8022807D310F1010F32D0F86101
:1012D00000F062FB0600A8D1022078752FE03A6A80
:1012E000B24211D0387D010605D5009800F0F9F81A
:1012F00000BB00F0E8F8012300984078324607F17F
:10130000300100F06FFBA8B93E62009AB96992897A
:10131000B1FBF2F35343501A18182546844288BF94
:10132000054607F13000C91A01442A465046FEF727
:101330005FFFA6E701217975012000E00020BDE8EC
:10134000F68707466946FAE52DE9FC4714469846B4
:1013500000228946C8F80020FFF7F3FF010001D101
:10136000787D010040F0AD80387D810758BF0720AF
:1013700040F1A780B869211881423CD24FF0FF327A
:10138000141A38E005EB000A00988189B4FBF1F6E5
:10139000002E63D040897119884238BF461B0098DF
:1013A000407833465246494600F022FB002840F080
:1013B0008080386AA0EB0A00B0420AD200998A897C
:1013C000504309EB000107F13000FEF711FF00F078
:1013D0007AF8009885897543B869F9682818B86162
:1013E000884238BF0846F860A944D8F80000281899
:1013F000C8F80000641B002C5ED000F069F83FD1F3
:1014000000984289521E154018D111B9B86850B9D8
:1014100006E0F86A18B13846FFF792F903E0F96977
:101420003846FFF739F9002846D0012814D010F1CA
:10143000010F3ED0B968F86101B9B860387D010686
:1014400006D500983A6A00F04CF890BB00F03BF8E3
:1014500000F0A2FA002895D102202BE0386A50450E
:101460000CD0B969F868814208D20098407801230D
:10147000524607F1300100F0B5FAD0B9C7F820A004
:101480000099BB698989B3FBF1F64E43C81A30183D
:101490002546844288BF054607F130009B1B2A463B
:1014A00049461844FEF7A4FE387D40F080003875A8
:1014B00092E70120787504E0387D40F040003875EF
:1014C0000020BDE8F687387D00F07F003875704752
:1014D0000098B9698089B1FBF0F500FB1510002870
:1014E00070474078012307F1300100F081BA7CB5E4
:1014F00000F0B0F8010037D1217D4A0634D5080646
:1015000006D500F032F808B1012076BD00F049F8A8
:1015100000F098FA0546616A0098FEF729FF01007D
:1015200022D1A66AF07A40F02000F0723146A2681B
:101530002068FFF7EFF9E16806F11C00FEF750FEA6
:10154000294606F11600FEF74BFE002106F11200B7
:10155000FEF742FE00990120C8700098FEF722FFB6
:10156000217D01F0BF01217576BD0098226A407887
:10157000012304F1300100F03BBA1CB50446FFF72B
:10158000B6FF01000CD169462046FFF7D8FC0100E8
:1015900006D12069FEF7A0FE010004BF00212160F2
:1015A00016BD207D00F07F002075704704F13001EA
:1015B00000F018BA33B5040081B001D109203EBD56
:1015C0000022694602A8FFF775FB05002DD100989F
:1015D000206020460299FFF758FA050021D194F8BF
:1015E0002F00010607D4A079C1061CD5216A0098F6
:1015F000FFF77DF9A0600098C188A18020460021F6
:10160000FFF7B5F805000CD1A06810B900212161E1
:101610000FE000212046FEF725FE206148B9122583
:1016200005E0042D01D1052501E0280001D00020AE
:10163000206028463EBD1CB500F00CF8010008D122
:10164000216921B10846FEF747FE010001D10021C2
:10165000216016BD04466946FFF771BC38B50C46DB
:101660000546FFF76FFE010018D124B90021284676
:10167000FFF77DF832BD00212846FFF75EF9042808
:1016800001D001000AD121462846FFF7CCF90021FC
:101690002846FFF7B3F8042808BF002032BD31B553
:1016A0008CB00C46002269460CA8FFF703FB05002E
:1016B00010D10C996846FFF7E8F905000AD19DF8AA
:1016C0002F00010648BF062504D41CB121466846F8
:1016D000FFF7A9F928460DB030BD2DE9F14F86B0CE
:1016E0000F4614460022694606A8FFF7E3FA0028D1
:1016F000814658D10098206000998C694869A21EE3
:10170000824228BF38604ED208460026017801295F
:1017100018D102240190214601A8FEF792FE10F193
:10172000010F09D001280AD000B9761C0098816900
:10173000641C8C42EFD32EE04FF001092BE04FF0F8
:10174000020928E0D0F824800AE0FEF73AFD000103
:1017500008BF5E460AF1040A2D1F641E1BD05DB946
:1017600000984146FEF704FE814608F1010890B951
:101770000098858900F1340A00980178022906F161
:10178000010B5046E1D1FEF719FD00B95E460AF1A2
:10179000020AAD1EE1E73E600098466100990879B3
:1017A00040F001000871484607B0BDE8F08F31B540
:1017B0009AB0022269461AA8FFF77CFA00990191B3
:1017C00002003FD11A9901A8FFF75FF9010003D188
:1017D000022101A8FEF719FD010033D19DF8330065
:1017E000010648BF06202DD49DF80A50E80715D4FD
:1017F00009990098FFF77BF80446E80612D500998E
:101800000D910F9400210DA8FEF7B1FF010019D131
:1018100000210DA8FFF791F8010001D1072011E088
:1018200004280FD101A8FFF7F0F8010005D134B169
:101830000022214601A8FEF7FAFE010002D100981D
:10184000FEF7B0FD1BB030BD2DE9F1438EB0022292
:1018500069460EA8FFF72EFA06000098019009D1FC
:101860000E9901A8FFF711F9060008BF082600F03D
:101870008A80042840F08780002101A8FEF70CFF31
:101880000546009841898089414304910DB9072696
:101890000CE0012D08BF022608D015F1010F08BF8A
:1018A000012603D00098FEF740FD064600F0CAF876
:1018B0008046300048D100982946FEF7B5FD07461E
:1018C0000098828900F1340900F06CF80B22202185
:1018D0004846FEF795FC2E20102189F8000089F873
:1018E0000B1009F116004146FEF77AFC00982A46D3
:1018F0004946FFF70FF82022494609F12000FEF77C
:1019000077FC2E2089F8210000980178039A03299A
:1019100002BF816A8A42002209F12001FEF7FAFF24
:101920000098448904E00098828900F03BF8641E26
:1019300064B10098012107637F1C0098C170009872
:10194000FEF7F3FC0600EED0300003D101A8FFF74C
:1019500023F80646300014D1099C414604F11600D4
:10196000FEF73EFC00982A462146FEF7D3FF1020E2
:10197000E07201210098C1700098FEF713FD064641
:1019800001E000F004F830460FB0BDE8F08300221B
:10199000294601A8FEF74BBEF9690098FEF744BD41
:1019A000BDF8022000214846FEF72ABC01461E4A27
:1019B000531802EB81014A68187A516808471A4B9C
:1019C00002460020995C002900D0704710B5012420
:1019D0009C5403EB82019C184A68207A1368BDE886
:1019E0001040184770B500F009F8AC68A04770BD0A
:1019F00070B500F003F8EC68A04770BD04460A4DCE
:101A00002E1905EB84046568307A704738B50346B3
:101A1000054CE51804EB83035C68287A236901B060
:101A2000BDE8304018470000B423002010B5034C37
:101A30000348211D00F024F8207010BDC0230020B1
:101A4000387A00080020704770B50E4D6B7A044656
:101A50000120A3B96B7A0020E854687A05EB800670
:101A60007460687A28440272687A421C6A72303064
:101A700008702F223A2048708A700020C87070BD0C
:101A80000022E1E7B42300202DE9F14FB0B09246E7
:101A900004910DF142013A9A2B9199464A70002027
:101AA0000AE01AF8011B0498309A90470028049025
:101AB00000F0B6860D98401C0D909AF8000050B1C9
:101AC0002528EED1002100220791089209910A925F
:101AD0000B910C9204E00D9800F0A4BE41F00101BE
:101AE0001AF8010F2028F9D023280CD02B2804D075
:101AF0002D2805D0302809D00BE041F00201EFE796
:101B000041F00401ECE741F00801E9E741F0100180
:101B1000E6E72A280FD1D9F8002052F8040BC9F8BB
:101B2000002000280F9003D540420F9041F004019F
:101B30000AF1010A14E00F92DFF828380AE00F9842
:101B4000984205DA00EB800402EB4402303A0F922F
:101B50000AF1010A9AF80020A2F130000A28EED317
:101B60009AF800002E2803D04FF0FF320E9229E0A1
:101B70001AF8010F2A2809D1D9F8000050F8042BCF
:101B8000C9F800000E920AF1010A1BE02D280CBFD3
:101B90000AF1010A002000220E92DFF8C8470BE08C
:101BA00040B90E9AA24205DA02EB820503EB450327
:101BB000303B0E930AF1010A9AF80030A3F130028B
:101BC0000A2AEDD3ADF84010DFF89C07784400F501
:101BD000F3609AF8001000F057FF08B11AF8010BF3
:101BE0008DF842009DF84200682805D19AF800005F
:101BF00068280CD1622106E06C2804BF9AF8000026
:101C00006C2804D171218DF842100AF1010A12A842
:101C100006901AF801BBBBF125012CD01C3900F04D
:101C2000D081091F022940F2CC81133900F02385AD
:101C3000093900F0C681891E00F0B885491E00F000
:101C40006585491E022940F2BC81091F00F05E85AE
:101C5000491F00F02881491E00F00D85491E00F043
:101C6000D080C91E0DD0891E00F00585C91E00F068
:101C7000028500F0A6BD25238DF84830012100F033
:101C8000ABBDD9F8000050F8044BC9F80000002C97
:101C9000059440F0A3802B994878002800F09980A3
:101CA0004FF0FF340FF6843000F0FEFE201A40F0B3
:101CB000B78500F092BD6D1E40F0A9853096079D56
:101CC00012AF75B1309E17F8012B02A9304600F013
:101CD00073FE002801D46D1EF5D10028309640F027
:101CE0009F850A9D3020002D8DF804000CDD309E6C
:101CF000012301AA02A9304600F06EFE002840F040
:101D00008F856D1EF4D13096059F089D75B1309E6C
:101D100017F8012B02A9304600F04EFE002801D42E
:101D20006D1EF5D10028309640F07A850B9D30204D
:101D3000002D8DF804000CDD309E012301AA02A9BC
:101D4000304600F049FE002840F06A856D1EF4D14F
:101D5000309605980899099D471875B1309E17F877
:101D6000012B02A9304600F027FE002801D46D1E89
:101D7000F5D10028309640F053850C9D3020002D81
:101D80008DF804000CDD309E012301AA02A9304623
:101D900000F022FE002840F043856D1EF4D13096FD
:101DA0009DF8400041077FF588AE2020002C8DF87B
:101DB00004007FF782AE309D012301AA02A92846C4
:101DC00000F00AFE002840F02B85641EF4D1309507
:101DD00073E60FF66440059000F0FFBC0E9D002DE9
:101DE00004D5204600F080FE044607E02A4620463F
:101DF00000F084FE002814BF041B2C46089400F059
:101E0000ECBCD9F8001051F8040BC9F8001020F010
:101E10000004002121F0FF3512ABCDE90245059306
:101E2000DDE9022306993C2413B90AB90E9898B14A
:101E300002F00F053035641EEEB23A2EA8BF2735EA
:101E4000120942EA03721B090D5508BF002A03D08C
:101E500005980D19A842EBD308190590C4F13C026E
:101E60000E98089282420ADABDF84010821A4FF6A4
:101E7000EF7001400A92ADF8401000F0AEBC0028AF
:101E800040F1AB849DF8400000F01400102840F0B1
:101E9000A4840F9B07990A985B1A1B1A9A1A002AA6
:101EA00040F39B84E5E32B99487820B14FF0FF3451
:101EB0000FF65430F8E69DF84200622861D0682899
:101EC00017D06A283FD06C2806D0712847D07428D4
:101ED0002CD07A281DD064E0D9F8001051F8040BFA
:101EE000C9F80010002868D14FF0FF340FF63030E9
:101EF000DAE6D9F8001051F8040BC9F8001020B93F
:101F00004FF0FF340FF61830CEE60D99018000F047
:101F100064BCD9F8001051F8040BC9F8001000286F
:101F20004BD14FF0FF340FF6F820BDE6D9F8001082
:101F300051F8040BC9F8001000283ED14FF0FF34CF
:101F40000FF6DC20B0E6D9F8001051F8040BC9F800
:101F5000001080B94FF0FF340FF6C420A4E6D9F882
:101F6000001051F8040BC9F8001020B94FF0FF34ED
:101F70000FF6AC2098E60D9AD317C0E9002300F0C5
:101F80002CBCD9F8001051F8040BC9F8001020B986
:101F90004FF0FF340FF6882086E60D99017000F0AF
:101FA0001CBCD9F8001051F8040BC9F8001020B976
:101FB0004FF0FF340FF6682076E60D99016000F0CF
:101FC0000CBCD9F80020D21D22F00702C9F800206D
:101FD000D2E900010832C9F80020CDE90201C80F9A
:101FE00002D007982D210AE0BDF84000810702D5F4
:101FF00007982B2103E0C00705D50798202112AAD6
:102000001154401C0790DDE90223079912A8CDE97D
:102010002C2308444BF020016129059021AC0BD002
:102020000E99002902D506210E9105E001BF4BF063
:102030002001672901220E92DDE90223590049158A
:10204000491C0DD11A030BD0ABF1610503211A2DE8
:10205000089102D20FF6E41110E00FF6E4110DE042
:1020600059004915491C0DD11A030BD1ABF161057B
:1020700003211A2D089119D30FF6CC11032200F079
:1020800069FDAAE3DDE90201CDE92E01DDE92E2398
:1020900023F00047B7F5801F22F000060DD2002282
:1020A000002F08BF002E009203D116E00FF6941106
:1020B000E4E76A4600F05AFD0FE0DFF8DC08DFF8DD
:1020C000DC1800EB17500090DDE92E234FF0FF30B5
:1020D0001940DFF8CC7810403943CDE902014BF0CC
:1020E000200061280DD1059830210170821CBBF1C0
:1020F000610F05920CBF7821582141700798801C10
:102100000790DDE9020120F0000231F0004308BF32
:10211000002A02D10026002568E14BF02008B8F122
:10212000610F40F0B4800E98002847BF2121019133
:10213000401C0190019FDDE92C017F1C002200233F
:10214000DDE9024500F04AFD00998DF8842038BF92
:1021500085F00045091F002F00910DF1850653DD24
:10216000204629460022002300F050FD4CD24800B2
:10217000400D00F11C0212D0002A10DD40F2FF7366
:102180009A4206DBDFF81C1805F0004001430020EE
:1021900011E06FF31E5141EA025120460BE024F09A
:1021A000000035F0004108BF00280FBF29461C225F
:1021B000294600F043FD04460D4600F0DDFDFF1FFB
:1021C000002F804609DD00F0F5FD02460B46204653
:1021D000294600F001FE04460D46F01D0721B8F126
:1021E000000F0CDD491E5EBF08F00F0200F8012D44
:1021F0004FEA2818F3D502E0002200F8012D491E0D
:10220000FAD5C61D002FABDC0DF18500361A0198FA
:102210008642D8BF304600280DF1850430D4B04244
:1022200006DA0DF185010A5C082AA8BF0F2100DA41
:102230000021024621AB134400E0401E13F801596F
:10224000521E8D42F9D00F2904D10DF185018B5C0E
:102250005B1C8B54002A04D50099091D21AC401C3D
:102260000091411E0CD46218ABF13A06137830335A
:10227000DDB23A2DA8BFF318491E02F80139F5D591
:102280000E99002940F1B080421E0E92ACE00099F8
:10229000DFF8142747F29750414391FBF2F2DDE952
:1022A0002C45009225F00045D2F1070204DD2046BE
:1022B000294600F04EFB0BE052420020DFF8EC16FE
:1022C00000F047FB02460B462046294600F0F6FD8B
:1022D0000446B8F1660F0E9806BF009F0A3706271E
:1022E0003F18142FC8BF142730200D468DF88400E6
:1022F0000DF18506002F39DD2046294600F002FF4A
:1023000001460A4606F1080304200A26B2FBF6F647
:1023100006EB860EA2EB4E02303203F8012C0A22A5
:10232000B6FBF2F202EB820EA6EB4E063036401EF2
:1023300003F8026DE9D1083F002F03F10806D9DD4B
:10234000084600F0F3FE02460B462046294600F000
:1023500043FD0022DFF8583600F0F6FE04460D4635
:10236000CAE700BFCBCCCC0C1C5700000DF1850098
:10237000361A0DF1850404E00098401E761E009088
:10238000641C20783028F7D0B8F1660F02D100998C
:10239000491C04E0B8F1650F0CBF012100210E9823
:1023A00008188642B8BF701E00281DD4B04204DA57
:1023B000215C3429C8BF392100DC30210246631E6C
:1023C0009D1800E0401E15F80169521E8E42F9D09A
:1023D000392902D1A15C491CA154002A04D50099D5
:1023E000491C1C46401C00910646009D00F07EFFE3
:1023F000406A0778DDF8388030B2002802DC012618
:102400000FF248644BF02000662808BF6D1C16D000
:10241000672846D128B210F1040F48DB404546DA60
:102420009DF840006D1C010703D430B24045B8BF91
:10243000804628B2B8EB000848BF4FF000080FFAFA
:1024400085FBBBF1000F00F3B5800898411C089193
:10245000302205990A54B8F1000F03DC9DF84000C2
:10246000010704D50898411C089105990F5418EBF1
:102470000B0FB8BFC8F100052DB268420B90A844FD
:1024800032B29045B8BF4646059B089836B20996C9
:1024900032462146184400F05DFBA8EB06000C9084
:1024A000D2E0BBF1610F17D14FF0700B19E030B2E1
:1024B000404504DA9DF840100A0758BF8046B8F13D
:1024C000010848BF4FF00008BBF1670F14BF4FF081
:1024D000450B4FF0650B04E0BBF1410F08BF4FF017
:1024E000500B0898411C0891B8F1000F059914F899
:1024F000012B0A5403DC9DF8400001071AD5089807
:10250000411C0891B8F1000F05990F5412DD761E99
:1025100030B280450598089BB8BF464632B2214686
:10252000184400F017FB089936B271180891A8EB0F
:1025300006000B9005980899084429B2002980F8F4
:1025400000B003D42B224270821C04E02D22427082
:102550000D46821C6D4200212CAB28460AE0044641
:102560000A2094FBF0F000EB8005A4EB450403F88F
:10257000014B491C00B20028F1DC012906DC4BF0BC
:102580002000652804BF302002F8010B00292CAB85
:1025900008D1302002F8010B06E0491E585C3030AB
:1025A00002F8010B0029F8DC059908980844121A72
:1025B000099249E030B229B288421CDA0598089B9A
:1025C00032B22146184400F0C5FA089936B27118A3
:1025D000ABEB0606B8F1000F08910B9603DC9DF8F3
:1025E0004000020704D5059847540999491C0991F0
:1025F000CDF8308028E00598089B2AB2214618447F
:1026000000F0A8FA0898761B5844B8F1000F08901B
:1026100003DC9DF840100A0703D5411C0891059979
:102620000F5430B280450598089BB8BF464632B279
:1026300004EB0B01184400F08DFA089836B23018FC
:102640000890A8EB06000B909DF8400000F01400E5
:10265000102840F0C280079A08990B988A180999A7
:1026600082180C988A1882180F98824280F2B580DE
:10267000821A0A92B1E09DF84200622808D06828C8
:102680000ED06A2814D06C281FD0712810D01CE0FE
:10269000D9F8001051F8040BC9F80010C0B21AE0C4
:1026A000D9F8001051F8040BC9F8001080B212E0FC
:1026B000D9F80020D21D22F00702C9F80020D2E983
:1026C00000010832C9F8002006E0D9F8001051F8DE
:1026D000040BC9F800100021CDE902019DF840006B
:1026E00001075AD5DDE90223002B08BF002A54D088
:1026F0004BF02000782850D1079812A930220A54B4
:10270000401C431C079301F800B046E09DF84200CE
:10271000622808D068280ED06A2814D06C281FD0F0
:10272000712810D01CE0D9F8001051F8040BC9F83A
:10273000001040B21AE0D9F8001051F8040BC9F8A3
:10274000001000B212E0D9F80020D21D22F00702DA
:10275000C9F80020D2E900010832C9F8002006E0DB
:10276000D9F8001051F8040BC9F80010C117CDE9D1
:102770000201002902D507982D210AE0BDF840008A
:10278000810702D507982B2103E0C00705D50798DC
:10279000202112AA1154401C079012A80799014445
:1027A000059102A8594600F04FF816E00120079065
:1027B000D9F8000050F8041BC9F800008DF8481043
:1027C0000BE025210122BBF1000F8DF84810079284
:1027D00003D08DF849B0022107910F9A07980A9902
:1027E0000C9C121A0898521A0B99121A0998521A2C
:1027F000121A9DF84000141B41073FF560AA2020E3
:10280000002C8DF804007FF75AAA309E254601233C
:1028100001AA02A9304600F0DFF800283FF44BAAD5
:102820004FF0FF3031B0BDE8F08F00007072696E7C
:1028300074665F733A206261642025732061726759
:10284000756D656E740000002DE9FC4307466F2925
:102850003E6908BF082405D041F02000782814BF45
:102860000A2410243C25D7E90023642918BF6929CC
:102870009046994605D1002B03D5D8F1000869EBA5
:102880004909B9F1000F08BFB8F1000F0CD1386B3E
:1028900050B9082C39D197F83800010735D53020C8
:1028A0003B2586F83B0030E08DF800104046494655
:1028B0002246E31700F01EFD3032D0B26D1E3A28DA
:1028C000019504DB9DF80000A0F151018A187255B2
:1028D000404649462246E31700F00CFD80465FEA79
:1028E000010908BFB8F1000F03D0F86871198842D8
:1028F000DCD3082C09D197F83800010705D5705DA5
:10290000302802D06D1E30207055C5F13C02BA61EE
:102910007119F960386B824208DA821A3A624FF60E
:10292000EF70398F01403987BDE8F38300280ED559
:1029300097F8380000F01400102808D17B6B7969F3
:10294000386A5B1A1B1A9A1A002AC8BF3A62BDE895
:10295000F3832DE9D04306460F4614464FF0000896
:10296000DFF8509012E0E00707D542464B4630466C
:10297000394600F0E9FB06460F46404649464246C6
:102980004B4600F0E1FB641080468946002CEAD1FA
:1029900030463946BDE8D08302FCFFFFFFFF0F80C1
:1029A0000000E03F0000F07FA08601000000F03F43
:1029B00084D797410000244010B503460C461146C9
:1029C000A0689847A06020B1E06A401CE062002047
:1029D00010BD4FF0FF3010BDF8B505460E46174646
:1029E0001C4600205CB117F8011BB068A847B06016
:1029F00030B1F06A401CF0620020641EF3D1F2BDD9
:102A00004FF0FF30F2BD00007072696E74665F7344
:102A10003A20256E20646973616C6C6F7765640081
:102A20007072696E74663A2062616420256E20615E
:102A30007267756D656E7400000000006E616E0057
:102A40004E414E00696E6600494E4600300030B47B
:102A5000002513E050F8042BD30744BFA9F101036C
:102A60009A18091F042942F8045BFAD213468C070E
:102A700044BF15809B1CC90748BF1D7050F8041B3C
:102A80000029E7D130BC7047C9B202788A421AB136
:102A90001CBF10F8012FF9E718BF0020704702682B
:102AA000531C03601170704780B500B906A005493A
:102AB0000B681BB122220021984701E000F09DFC29
:102AC000222002BDD0230020636F6E73747261698F
:102AD0006E742068616E646C65723A206261642075
:102AE0006D6573736167650000F1010310F8011BE8
:102AF00011B110F8011BFBE7C01A7047C9B2830778
:102B000006D0521E22D310F8013B9942F7D11FE0A4
:102B1000083A13D302F1040241EA012141EA0141DA
:102B200050F8043B121F21BF4B40A3F1013C2CEA9B
:102B3000030C1CF0803FF3D0C9B2001F083210F81C
:102B4000013B521E28BF91EA030FF8D818BF01209D
:102B5000401E70474AB1000011F8013B521E00F8B8
:102B6000013B1CBF11F8013BF8E7704710B5144654
:102B700000F002F8226010BDC1F30A5343B14A00CD
:102B800012F5001F28D2A3F2FE32A1EB02517047CA
:102B900050EA410C20D001F0004C31EA0C01B1FAAE
:102BA00081F204BFB0FA80F3D2180B3AB2F12003DD
:102BB0002CBF00FA03F1914041EA0C013EBFC2F183
:102BC000200C20FA0CF319439040524240F2FD339E
:102BD000D21A01EB03517047002270474FF4001CDA
:102BE0001CEB410F94BF1CEB430F09E041EA030CBF
:102BF00050EA4C0C52EA0C0C03D2994208BF9042A6
:102C0000704714BF8B42824270472E004FF4001C65
:102C10001CEB410F94BF1CEB430F09E041EA030C8E
:102C200050EA4C0C52EA0C0C03D28B4208BF824291
:102C3000704714BF9942904270477047124254D473
:102C400040F2FF7C1CEA11530FD0634531D09B1832
:102C500063453CBF01EB0251704701F0004141EA7E
:102C60000C510020AFF30080704750EA410320D0A0
:102C700001F0004C91EA0C011CD0B1FA81F30B3B3E
:102C80009A420DD9D21A994051EA0C01C3F1200C95
:102C900020FA0CFC61449840531C40F2FF7CD7E7BB
:102CA000914041EA0C01C2F1200C20FA0CF31943C7
:102CB00090407047B0FA80F31533202BE0D3202AE0
:102CC000EED3203A203B9A4209D9D21A00FA03F1F6
:102CD00041EA0C010020531C40F2FF7CB8E700FAE7
:102CE00002F141EA0C0100207047524240F2FF7CA1
:102CF0001CEA11530DD06345DBD0B2EB030C3CBF93
:102D0000A1EB025170470CF1010221EA035141F499
:102D1000801150EA410CCCD001F0004C352A27DC60
:102D200030B481EA0C01B2F1200309DAC2F12003C8
:102D3000044601FA03F5D0402843D1409C400CE002
:102D4000C3F12002450020FA03F418BF44F0010447
:102D500021FA03F091400C43002174F1004550F139
:102D6000000051EB0C01244230BC7FF47BAF704774
:102D70006146002076E77047C1F30A5340F2FE3205
:102D80009B1A14DDD3F120034FEAE17208DDC9027A
:102D900041EA505141F00040D840801850407047FF
:102DA00003F2E13010B1D24382F0004070470020BE
:102DB00070477047C11768B14840401AB0FA80F2B6
:102DC0009040D21CC907C2F5846241EA025202EB6C
:102DD000D02140057047704770B44FF0004591EA2C
:102DE000030F40F10D836B40841A71EB030603D28D
:102DF000001BB141121973414FF4001C1CEB410F31
:102E000034BF7CEB430442E00C0DA4EB1356352E8B
:102E10004FDC45EAC323DB0A45EAC121C912B6F1FA
:102E200020050DDD63FA05F6EB4086EA0305124244
:102E300018BF45F00105C01851F100010CD213E094
:102E400062FA06F5F2405540F3415A40B340F34070
:102E50005A408018594107D349085FEA30005FEAB9
:102E6000350528BF45F0010501F58011420875F1CF
:102E7000004250F1000041EB04514E0016F5001FD6
:102E800070BC38BF70470020090D090570471CEB66
:102E9000410F10D252EA43060BD0BCEB410F05D8CC
:102EA0000C0DAB43661E342EB6DD02E0AB4380183A
:102EB000594170BC704770BC70477047F0B540F224
:102EC000FF7581EA030C0CF0004C15EA11541DBF8C
:102ED00015EA1357AC42AF42E5E0BC41C1F3130120
:102EE000C3F31303801A994143F4801304D2641E80
:102EF0004000494180185941C90241EA5051B1FB93
:102F0000F3F603FB1611A2FB0675D7EBC020A9410F
:102F100002D2761E80185941C90241EA5051B1FBD4
:102F2000F3FE03FB1E11A2FB0E75D7EBC020A941D7
:102F300003D2AEF1010E80185941890241EA905145
:102F4000760546EA8E2EB1FBF3F603FB1611A2FBC3
:102F50000675D7EB8020A94102D2761E8018594110
:102F6000C90241EA50514EEA060EB1FBF3F603FBEB
:102F70001611A2FB0675D7EBC020A94102D2761E1E
:102F800080185941C90241EA5051B1FBF3F703FBE4
:102F90001711A2FB0735D3EBC020A94167F1000749
:102FA0000CBF004247F0010766F3D5274FEA1E31F8
:102FB000B80814F5806412DDBD0775F1004250EBCE
:102FC0000E5051EB045111F5801F5CBF41EA0C011A
:102FD000F0BD4CF07F6141F0E0410020F0BDBD0745
:102FE0006D0840EA0E5041F48011D4F10104B4F1AF
:102FF00020060ADAC4F120060200E04001FA06F3D6
:10300000E1401843B24015430EE0342C13DCC6F106
:10301000200445EA40056D0820FA06F2154321FA1E
:1030200006F0A1400D43002175F1004250F100006F
:1030300051EB0C01F0BD00205FEA0C01F0BDCFB9EF
:1030400092185B41B3FA83F704BFB2FA82F6BF1954
:103050000B3FB7F120062FBF02FA06F3BB40C7F1C2
:10306000200622FA06F638BF3343BA401CB1E419F1
:10307000641E33E77F4231F00041B1FA81F404BFAE
:10308000B0FA80F6A4190B3CB4F120062FBF00FA69
:1030900006F1A140C4F1200620FA06F638BF3143FC
:1030A000A0403C1B1AE7AC421ABF05EA1357AF42D7
:1030B00012E050EA41061CBF52EA4306BFE750EA5D
:1030C0004107304661461CBF41EA0551F0BD52EA56
:1030D000430C08BFC143F0BD00204FF4001616EBAF
:1030E000410F98BF16EB430F08BF16EB410F24BFEB
:1030F000C14305E016EB430F0CBF61464CEA055196
:10310000F0BD7047400D491840EA81200CD2490DAE
:10311000A1F58061491C40F0004005DBD1F11F01A1
:1031200054BFC840C017704700207047014648B1DF
:10313000B0FA80F18840C91CC1F58461090501EB32
:10314000D021400570477047B0B581EA030C0CF000
:10315000004C40F2FF7515EA11541DBF15EA1357D4
:10316000AC42AF4239E0E41923EA455343F48013FB
:10317000C90241F0004141EA505EC7021100A7FBBD
:10318000020200284FF00000EEFB01204FF000018A
:10319000E3FB072118BF42F001024018002149411A
:1031A000E3FB0E01A4F580640F0302D252004041FC
:1031B000494154F101046CDD470872F1004250F1BD
:1031C000000051EB0451A1F580115CBF41EA0C01F4
:1031D000B0BD4CEA05510020B0BD05EA1357AC4222
:1031E00014BFAF4241E050EA410E1CBF52EA430E09
:1031F00002E061460020B0BD24423C441BD15FEA9E
:10320000070EF6D0090302BF01460020AEF1140EEE
:10321000B1FA81F7AEEB070401FA07FE0C37C7F1EC
:10322000200100FA07F7C8404EEA000E23EA455392
:1032300043F48013A2E733F00043B3FA83F704BFEB
:10324000B2FA82FE77440B3FE41BB7F1200E2FBF8A
:1032500002FA0EF3BB40C7F1200E22FA0EFE38BF71
:1032600043EA0E03BA40641C82E750EA410E14BFE1
:1032700052EA430E6FF000014FF4001717EB430FB3
:103280008ABF194617EB410FB5E74CEA05510020FC
:10329000B0BDD4F10104B4F120070FDAC4F1200766
:1032A000520828BF42F0010210FA07F501FA07F7A9
:1032B000E1BF2A43E0403843E1400FE0352C98DC81
:1032C000C7F1200452EA400220FA07F218BF42F088
:1032D000010231FA07F0A1400A43002172F10042D5
:1032E00050F1000051EB0C01B0BD70470048704731
:1032F00010000020D3BBD9B1B2F5803F5BD2022AC7
:103300001ED98C46B1FBF2F102FB11C31B0443EA48
:103310001043B3FBF2FC02FB1C3380B240EA0343D0
:10332000B3FBF2F002FB103240EA0C40002370477E
:10333000022A05D98446B0FBF2F002FB10C27047A6
:103340004AB105D100F0010249085FEA3000704738
:1033500000220023704700F009B90B000200002191
:1033600000207047F7D3002200237047904271EB92
:10337000030CF2D370B5B1FA81F4B3FA83F52C1BC8
:10338000A340C4F1200532FA05F63343A2405FF0B2
:103390000046E64002E05B085FEA3202841A71EB05
:1033A000030524BF204629467641F4D302000B00D2
:1033B0003000002170BD70B5B1FA81F4B2FA82F527
:1033C000C4F120046419B4F12006DAD3B2405FF0EE
:1033D0000044F440002502E052085FEA3303C61AB5
:1033E00071EB020E24BF3046714664416D41F3D348
:1033F00002000B002000290070BD012000F0B8B8C9
:10340000841A71EB030604D26E40001BB1411219FD
:1034100073414FF4001C1CEB410F34BF7CEB43069F
:1034200083E00C0DA4EB1356362E00F37C80012EA6
:1034300045EAC32341DC43EA525312BFD20292024F
:103440005B08240545EAC12141EA5051D2EBC02076
:10345000994125D407D1B0FA80F610FA06F162D06E
:103460000020203608E0B1FA81F6B140C6F1200212
:1034700020FA02F21143B0404FEAF474B4EB465420
:1034800034F001064FEA74040AD8D6F50016760D1A
:1034900004F00044F04061FA06F25040F140484028
:1034A000C00A40EA415021F0004128BF5FEA5005C0
:1034B00050F1000044EBD12135E0DB0A45EAC1219F
:1034C000C90AB6F120050EDD42EA0242120CC5F12E
:1034D000200603FA06F6EB4042EA06056D429841E3
:1034E00061F100010DE062FA06F5F240554063FA21
:1034F00006FC82EA0C02F3405A406D42904161EBB7
:10350000030111F4801F05D1641E620502D06D0015
:103510004041494121F48011430875F1004350F1C5
:10352000000041EB045170BC70471CEB410F15D2F9
:1035300023F0004352EA43060BD04FEA4C0CBCEB9D
:10354000410F04D80C0D661E342EB7DDEBE7801A50
:10355000994150EA410608BF0021E4E708BF1CEB8F
:10356000430F28BF6FF00001DDE7704770477047D9
:1035700080B5AFF30080024A11001820ABBEFBE714
:103580002600020078B5040085B04BD004F1340564
:10359000287820BB00212177DFF8A406DFF8A416E5
:1035A000DFF8A426E8642965EA66DFF8A006DFF8FC
:1035B000A0166865A965DFF89C06DFF89C16E8652B
:1035C0002966DFF89806DFF898166866A966286FFE
:1035D00010B9DFF8901629672046296F8847032025
:1035E0002870204600F040F8E0B96946204600F017
:1035F0002DFCB8B99DF810109DF81100AA68012A99
:1036000007D100290ABF00284FF400704FF48070E2
:1036100002E00021A96200E0A862E168204600F013
:10362000F8FC10B1012006B070BD00F071FE064636
:10363000204600F0BBFD04280ED000F069FE801B80
:1036400010F1010FF4D14FF00040686001212970A2
:10365000002222630320E6E7002068600021216346
:10366000012028700020DEE72DE9F0478CB0002112
:10367000054603910491059106914FF4002001F055
:103680001BF8060005F1340405D1012020704FF02D
:103690000061616027E1DFF8DC05B6FBF0F7079712
:1036A000A8690890012804D12868016841F0100138
:1036B000016003A983B068461822FFF74BFA0EBCDD
:1036C000286801F07FFB08B100F0FFB8286801F01E
:1036D00091FB08B100F0F9B87F00B6FBF7F0DFF816
:1036E0009815B1FBF0F0401C01F050FE0020009056
:1036F000824600F00DFE8146286801F02BFC002672
:1037000000284FF080584FF080671BD1286801F0E7
:1037100044FC78B1E660286801F01CFC002811D157
:10372000E06801281FD12868002101F04AFC002828
:103730000FD118E00120E060F5E72868002101F0D2
:1037400040FC002870D12868DFF8301501F044FCF7
:10375000002840F0AC8000F03DFD82460098401CFF
:103760004FEADA7600904FF6FF700099814201D25D
:10377000002EE2D00099814253D25FEA4A004DD533
:103780000121A160A86901283FD15FEACA103CD598
:103790004FF40071A1622868026842F008020260DA
:1037A000286801F0A9FC00283ED12868416B4A0135
:1037B00007D400F0ADFD00F092FDF6D14FF00040CF
:1037C0007EE087632868416BC80270D5E16E0120F6
:1037D00088472868026842F0040202602868416B4A
:1037E0008A0105D400F094FD00F079FDF6D1E5E7FB
:1037F0004FF0007181632868416BCA0211D4132114
:1038000001604FF0FF302A6890630120ADF800009E
:10381000286801F0F9FA50B9384651E00020A0605C
:10382000F3E74FF080704BE00028EED048E0A0684E
:10383000032833D0286801F0E4FB002840D100F0D1
:10384000C9FCE06300F052F82064082100F04FF852
:1038500060640C2100F04BF8A064A06803281DD020
:103860002868694601F0F7FB50BBA068032815D013
:10387000BDF8001061610904286801F0D6FBF8B9B1
:1038800000F0A8FCE06200F031F82063082100F0AD
:103890002EF860630C2100F02AF8A06300F026F8EF
:1038A000000D206101A9284600F0ECF908B140465E
:1038B00006E0626928681204002301F03EFB30B183
:1038C0000121217062681043606001200BE000F06C
:1038D00089FB40B12A68DFF8A81391636168084347
:1038E0006060012020700CB0BDE8F08704212868DA
:1038F00001F0A0BA2DE9F04F87B006460C4692467B
:10390000984600F005FD0090254606F134071CB9E5
:10391000786840F000609EE03878012840F0988098
:103920000021796008EB0A02386A904204D2796873
:1039300041F0007179608FE000F06AF9019101288F
:1039400018BF4FEA4A2A4FEA482290210292039177
:103950000222002104920591069101A9306801F02C
:103960006CFA00F04DF906D30220306351463068FE
:1039700001F08FFA05E0012030635146306801F014
:103980007DFA0028DFF8F84241D1DDF808A0DDF823
:1039900040B03068416B11F4957F2CD1406B01042D
:1039A00014D5BAF1000F11D0AAF1200A4FF008097E
:1039B000306801F019FA2870010A6970020CAA70C7
:1039C000000EE8702D1DB9F10109F1D100F0A0FC45
:1039D0000099401A584502D2BBF1000FD9D1306886
:1039E00084630120796841F00041796038700021DA
:1039F0003163032031E000F0FBF80BD5B8F1020F82
:103A000008D3B968032905D001F072FA10B100F0AB
:103A100007F922E03068416B0A0704D584637868AF
:103A200040F008000EE0416B8A0704D58463786893
:103A300040F0020006E0416B8A0606D58463786890
:103A400040F0200000F0CEF806E000F0C4F804E0FA
:103A5000786840F000507860012007B0BDE8F08F32
:103A60002DE9F84F88B006460C461546984600F0FA
:103A70004FFC0190A24606F134071CB9786840F06B
:103A80000060A3E03878012840F09D800021796033
:103A900008EB0502386A904204D2796841F000715F
:103AA000796094E000F0B4F802914FEA48220128CE
:103AB000039218BF6D029021002204910592069294
:103AC000079202A9306801F0B8F900F099F806D31E
:103AD000202030632946306801F0F1F905E010201C
:103AE00030632946306801F0DFF90028DFF89041A3
:103AF00048D1039DDDF848B03068416B11F48D7FEB
:103B000034D1406B41041ED5EDB1203D4FF0080982
:103B10001AF8010B009001461AF8010B41EA002146
:103B2000009108461AF8011B40EA014000901AF87B
:103B3000011B40EA016000906946306801F055F9C8
:103B4000B9F10109E4D100F0E3FB0199401A5845AD
:103B500002D2BBF1000FCFD13068846301207968B5
:103B60007960387000223263032031E000F040F8C1
:103B70000BD5B8F1020F08D3B968032905D001F0BD
:103B8000B7F910B100F04CF822E03068416B0A0739
:103B900004D58463786840F008000EE0416B8A0722
:103BA00004D58463786840F0020006E0416BCA06E1
:103BB00006D58463786840F0100000F013F806E042
:103BC00000F009F804E0786840F0005078600120C7
:103BD00009B0BDE8F08FDFF8081481630120387068
:103BE00000207047786001213970002030637047F1
:103BF000C16821F04001C1603068416BCA0570475F
:103C00003068C16841F04001B8F1020FC1607047EF
:103C1000032038703268D1624FF0FF31B8687047C6
:103C200031688C6300217A68104378600120387015
:103C30003163704705926946286801F0FEB80000BC
:103C4000617A0008657A0008ED7B00083B2C0008CB
:103C50005D7A0008772D0008B32D0008D72D0008E5
:103C6000BB2E00086F6F0008706840F00060706045
:103C70007047000000350C0010210100000010C149
:103C8000FF0FE01F30B500F13403DA6A920F0A70BB
:103C9000DC6AA40E04F00F044C70DA6A120E02F013
:103CA00003028A70DA6A120CCA70DA6A120A0A719E
:103CB000DA6A4A711C6B240DCC804FF400741A6BC5
:103CC000120C02F00F020A721A6BD20B02F0010200
:103CD0004A721A6B920B02F001028A721A6B520B33
:103CE00002F00102CA721A6B120B02F001020A738F
:103CF00000224A739A68002A40F08D80186B40F6C3
:103D0000FC7202EA8002586B42EA90720A61012258
:103D1000586BC00E00F007000875586B000E00F0DD
:103D200007004875586B400D00F007008875586B08
:103D3000800C00F00700C875586BC00B00F007003E
:103D400008760869401C98610D7E05F00705AD1CDA
:103D500002FA05F5684398610D7A05F00F05AA404F
:103D6000DA61520A504318625C62586B800B00F0B3
:103D700001004876586BC00900F07F00887693F800
:103D8000340000F07F00C876986BC00F0877986BFE
:103D9000400F00F003004877986B800E00F007009A
:103DA0008877986B800D00F00F00C877986B400DF6
:103DB00000F0010081F8200001F1210000210170D4
:103DC0009A6B120C02F0010242700122996BC90B2E
:103DD00001F001018170996B890B01F00101C17043
:103DE000996B490B01F001010171996B090B01F00D
:103DF00001014171996B890A01F003018171996B8D
:103E0000090A01F00301C171996BC1F34601017206
:103E10004272002030BD012A0DD1186B5A6B00048C
:103E200000F47C1040EA124008610869DC61401C23
:103E30008002986197E70068DFF8C0148163012071
:103E4000596841F080515960187030BD2DE9F84F24
:103E500096B005460E4600F05BFA80462868DFF80B
:103E60009CA400F0B8F980014FF000090DF1180B87
:103E700005F1340716D54FF400602968C1F838A061
:103E80007A681043786001203870814600F0AAF803
:103E900030B12968C1F838A07860012038708146B7
:103EA00048467BE12868402100F0DDFF10B17968C9
:103EB0007960E2E7796900F005FA0028F7D140213E
:103EC00001914FF0FF320221009203916022012103
:103ED0000292CDF810900591FFF7ADFE286801F031
:103EE000E9F878B1E3E7406B010406D5082400F057
:103EF00001FA641E4BF8040BF9D100F009FA00F046
:103F000050F920D02868416B11F4957FEBD0416BBC
:103F10000A0748BF0820B0D4416B8A0748BF022077
:103F2000ABD4406B810648BF2020A6D42868416BE3
:103F3000CA040BD500F058FF4BF8040B00F0E8F969
:103F400000F02FF9F2D14FF0004096E7DFF88C1225
:103F500081630698C0F3811030700698C0F340105A
:103F6000707006980699000A00F47F4040EA1160DC
:103F7000708006A841680A0202F47F020B0A42EA36
:103F8000016203F47F431A4342EA1162726081685E
:103F900031728268120A72728168090D01F00F0194
:103FA000B1728268C168120C02F47F4201F0FF0313
:103FB0001A43890AB28101F03F01B173C168090A4D
:103FC00001F00301F173C168C1F303113174017B86
:103FD00001F00F0171740069000EB07456E7000023
:103FE0003A0F001828684FF4007100F03CBFC26B14
:103FF0000A60036C4B60426C8A60836CCB60C26C5D
:104000000A61036D4B61426D8A61806DC861002059
:1040100070472DE9F043054605F1340689B00320C9
:10402000884630700024B168032918BFB8F5004FE6
:104030004AD0B8F5804F4FF080674FF400691BD12C
:1040400000F044F900F0C6F8800148BF4F4633D471
:104050006946284600F0C4F8F0B9019841032BD511
:1040600000F02FF9070027D12868022100F0BAFFDD
:10407000070021D100271FE0B8F1000F20D100F088
:1040800025F900F0A7F8800148BF4F4614D46946CF
:10409000284600F0A5F808B107460DE00198C103D5
:1040A0000AD500F00EF9070006D12868002100F0BB
:1040B00099FF070008BF002770680743776007E093
:1040C000706840F0006002E0706840F080507060FE
:1040D0007068DFF8287210B129688F634BE04FF4E5
:1040E000002000F0E9FA010043D068680390AA6854
:1040F0000492CDF814802869DFF804220690B1FB01
:10410000F2F26869904226D2B36AB3F5007F22D0FA
:10411000B3F5807F14D1DFF8E82130B991421AD984
:10412000DFF8E001B1FBF0F015E04300B1FBF3F381
:10413000934210D9DFF8CC21B1FBF2F107910BE0EB
:10414000DFF8C43118B14FEA400EB1FBFEF19942DD
:1041500028BF079200D20790A869089003A983B0EE
:1041600068461822FEF7F6FC0EBC286800F02AFE0E
:1041700002E0FFF779FD01244FF4007100F0ACF884
:1041800028B129688F630124726810437060012090
:10419000307009B02046BDE8F083000017B0BDE8DC
:1041A000F08FA0EB080010F1010F704738B50446FE
:1041B0000025A16C2068090400F071FF18B1A16B03
:1041C0000843A06304E0206800F005F8C0F343252D
:1041D000284632BD2868002100F02CBE3A0F001896
:1041E000F8B588B005460E4600F092F8074600F094
:1041F0006DF82868082100F036FE002400285ED102
:10420000A96C00F05FF8002859D1082203924FF002
:10421000FF3102220291059230210122049106947D
:10422000079202A9286800F008FE286800F0DCFE6A
:10423000002844D100F058F8416B12D10A0307D48A
:1042400034B900F0D1FD0090012400F053F8019042
:1042500000F05EF8C01B10F1010FEBD14FF00040F1
:104260002DE00A0748BF082108D4416B8A0748BFE0
:10427000022103D4416B8A0603D5202181630846BD
:104280001DE0224981630198010201F47F01020AC5
:1042900041EA006102F47F42114341EA106131605A
:1042A0000098010201F47F0141EA0061000A00F474
:1042B0007F400143009841EA10617160002009B01D
:1042C000F0BD71692868090400F07BBE0822002156
:1042D000684601F06FB84021286800F0C4BDA0EB2B
:1042E000090010F1010F70472868416B40F22A5213
:1042F00011427047286800F077BD0000FF0FE01FF3
:1043000080F0FA0200E1F50541787D013A0F0018CE
:1043100001484068704700BF000000202DE9F84FB9
:10432000064600253068DFF8BC77DFF8BC4701059A
:10433000A84620D5F06E68B1202817D0402804D0B8
:10434000602818BF802809D013E0226842F4803228
:10435000226004E0002100F0ABF9054655B9F96888
:10436000F06E21F0E0010143F96004E000F09AF9F9
:10437000F3E70125A8463068C10424D5306FC0B1E9
:10438000B0F5807F1AD0B0F5007F06D0B0F5407F41
:1043900018BFB0F5806F04D013E0216841F480317C
:1043A00021607DB9F968306F21F4E0610143F96063
:1043B00009E0002100F07CF90546F2E700F072F90F
:1043C000FAE70125A8463068810306F184092DD556
:1043D000E06CC1004FF0000A0AD4E06C40F080505D
:1043E000E0644FF0010AE06C00F08050009000980B
:1043F000DFF8F816086840F480700860FFF788FF5F
:104400008346DFF8E8060168CA0500F18B80FFF7F4
:104410007FFFA0EB0B000328F3D30325A846BAF1D6
:10442000000F03D0E06C20F08050E0643078C107CA
:1044300005D5E26FF06B920840EA8202E2673178BC
:10444000880705D5E16F306C21F00C010143E1676D
:104450003178480705D5E16F706C21F030010143D8
:10446000E1673178080705D5E16FB06C21F0C00134
:104470000143E1673178C80605D5E16FF06C21F49E
:1044800040710143E1673178880605D5E16F306DF1
:1044900021F440610143E1673168880505D5E16F8A
:1044A000706E21F440210143E1673168480505D56C
:1044B000E16FB06E21F440110143E16731784806A5
:1044C00005D5E16F706D21F440510143E16731780A
:1044D000080605D5E16FB06D21F440410143E16765
:1044E0003168C80505D5E16FF06D21F44031014315
:1044F000E1673168C80205D5F968306E890840EA7D
:104500008101F9603168880445D5E16F706F21F051
:1045100040610143E167706FB0F1006F33D100F08B
:10452000BCF838E0002D7FF479AF386810F44070A3
:104530001CBFD9F80C1088420BD03868396841F498
:104540008031396020F440703A6822F480323A6059
:104550003860C0070FD5FFF7DBFE054638688107D6
:1045600009D4FFF7D5FE401B41F289318842F5D3CB
:104570004FF0030853E73968D9F80C0021F4407173
:10458000014339604BE7B0F1806F04D100F08FF840
:10459000010018BF80463068010329D5B06FB0F51F
:1045A000804FF86803D140F48040F86008E020F4C0
:1045B0008040F860E16FB06F21F040610143E16736
:1045C000B06FB0F1006F03D1206840F4801005E0B7
:1045D000B0F5804F04D1206840F48030206007E0BF
:1045E000B0F1806F04D100F062F8010018BF80467E
:1045F0003068410314D5E26FF06F22F0406202434D
:10460000E267F06FB0F1006F02D100F046F807E00A
:10461000B0F1806F04D100F04AF8010018BF804665
:104620003068410411D5E26FD6F8800022F0405284
:104630000243E267D6F88010B1F1805F05D1022114
:1046400000F036F8010018BF80463068C10306D577
:10465000FA68D9F8000022F004020243FA603168D7
:10466000880206D5F968D9F8040021F01801014341
:10467000F9603168C8010DD5F968D9F8080021F44E
:1046800040110143F960D9F80810B1F5001F01D1BC
:1046900000F003F84046BDE8F28F206840F4801037
:1046A00020607047002106F1200000F079BA012156
:1046B000301D00F01DBA0000F8B501460020B1F52C
:1046C000003FDFF8F055DFF8C4364FF400464FF4F2
:1046D000FA4C13D1A96801F44071B1F5807F00F064
:1046E000B981B1F5007F00F0AB81B1F5407F04D115
:1046F00019688A0301D5DFF89806F2BDDA68DFF899
:104700009446DFF8947602F00302012A04D01DD308
:10471000032A15D00FD319E01A68920716D51A6824
:1047200012074EBF1A68EA68120902F0F002120975
:1047300054F822200BE01A68520507D53A4606E0E5
:104740001A68920348BFDFF8542600D400220129DA
:10475000DFF84CE600F0AE80022900F0B6800429B4
:1047600000F0BE80082900F0C780102900F0CE803C
:10477000202900F0D880402900F01D81802900F018
:104780002481B1F5807F00F02B81B1F5007F00F02E
:104790003981B1F5806F00F04281B1F5006F00F012
:1047A000FA80B1F5805F1DD0B1F5005F1ED0B1F584
:1047B000804F00F0C580B1F5803F00F0DC80B1F59E
:1047C000802F13D0B1F5002F30D0B1F5801F00F04D
:1047D0001181B1F5001F00F0D580B1F1807F00F0AC
:1047E0003E81F2BD11464FF48050D7E0296811F0A8
:1047F00040615AD0B1F1806F0FD0B1F1006F3CD061
:10480000B1F1406FEDD119688A07EAD51868010740
:104810004EBF1868E868000939E119680C01E0D555
:104820001969CC021FD500F053F942E169694E04C1
:104830001AD519688C0116D5D968CC0313D5D86858
:10484000C0F306204243D868C0F30310401CB2FBFB
:10485000F0F1D868C00E04D1D86882034CBF112093
:104860000720B1FBF0F0F2BD296811F040611CD0C7
:10487000B1F1806F10D0B1F1006F00F00E81B1F195
:10488000406FF0D119688A07EDD5186801074EBF4F
:104890001868E8680009FAE019680C0109D5196977
:1048A000CC0206D500F014F903E129698A0700D586
:1048B0007046F2BD296801F003010329F9D8DFE849
:1048C00011F05D00D900C400C900296811F00C0185
:1048D00000F0B28004293CD0082958D00C2908E007
:1048E000296811F0300169D0102932D020294ED02A
:1048F000302900F0AF80F2BD296811F0C0015DD011
:10490000402926D0802942D0C029F2E7296811F435
:10491000407153D0B1F5807F1BD0B1F5007F36D008
:10492000B1F5407FE5E7296811F4406146D0B1F563
:10493000806F0ED0B1F5006F29D0B1F5406FD8E788
:10494000296801F04051B1F1805F03D0B1F1405FBF
:1049500020D18FE019680C011CD51969CC0119D53B
:104960001869196900F0AEF81969401CB2FBF0F043
:10497000C1F34161A1E0686940077BD4BDE8F14023
:1049800001F0A5B8696911F0180104D008295CD0BC
:10499000102906D0F2BD11464FF40060BDE8F44086
:1049A0008AE119688A07F5D5186801074EBF1868AB
:1049B000E86800096BE0296811F440513CD0B1F57A
:1049C000805F57D0B1F5005F08E0296811F44041DD
:1049D00032D0B1F5804F4DD0B1F5004F35D0F2BD9A
:1049E000296811F4403127D0B1F5803F42D0B1F5AC
:1049F000003FF3E7696911F003011DD0022924D0BB
:104A00005FD237E0296811F4402115D0B1F5802F2D
:104A100016D0B1F5002F18D0B1F5402F69E72968FD
:104A200011F4401108D0B1F5801F09D0B1F5001F75
:104A30000BD0B1F5401F5CE7BDE8F14001F03FB895
:104A4000E9688A073DD56046F2BD19684A0538D540
:104A50003846F2BDA9688A0733D53046F2BD696988
:104A600011F4401106D0B1F5801F07D0B1F5001F39
:104A700013D0F2BDBDE8F14000F0D8BF19688A0735
:104A80001FD5186801074EBF1868E868000900F0D4
:104A9000F000000954F82000F2BD19688C0110D50F
:104AA000D968CC020DD5D868D96800F00BF8401C45
:104AB000D968B2FBF0F0C1F34151491C4900B0FB89
:104AC000F1F0F2BDC0F306204243C1F3031070477A
:104AD00018691969C0F306204243C1F30310401C52
:104AE00019697047901002400C100240007000409D
:104AF0002DE9F04100F0D4F806D0F96801F0030187
:104B0000814228D160B926E0012804D023D30328AC
:104B10001BD016D31FE039688A071CD500F0BAF8FD
:104B2000386820F0806000F0B2F8804638680101F3
:104B300013D5FFF7EDFBA0EB08000328F6D3032500
:104B40002DE039684A05E9D405E039688A03E5D4DF
:104B500039684A03E2D4012521E07168B268491E30
:104B60001CB93B6900F076F803E0012C3B6900F0CA
:104B700079F842EA01113961386840F0806000F04C
:104B800086F804463868010105D4FFF7C1FB001B15
:104B90000328F7D3D3E73869B1690843386156E091
:104BA0002DE9F04100F07CF806D0F96801F003012E
:104BB000814228D160B926E0012804D023D30328FC
:104BC0001BD016D31FE039688A071CD500F062F8A5
:104BD000386820F0805000F05AF88046386881002C
:104BE00013D5FFF795FBA0EB08000328F6D30325A8
:104BF0002DE039684A05E9D405E039688A03E5D42F
:104C000039684A03E2D4012521E07168B268491E7F
:104C10001CB97B6900F01EF803E0012C7B6900F0F1
:104C200021F842EA01117961386840F0805000F0C3
:104C30002EF804463868810005D4FFF769FB001B95
:104C40000328F7D3D3E77869B16908437861284628
:104C5000BDE8F0815348F468034043EA022242EA87
:104C6000C462704709D134694F480340640843EA7D
:104C70000222641E42EA4452704774694B48034062
:104C8000640843EA0222641E42EA446270473860C4
:104C9000FFF73EBBF968890840EA8100F860704779
:104CA00006463A4F30680C46F968002511F0030FAC
:104CB000704700008810024010B50022B0F5006F68
:104CC000324B3B4C1CD1206800F0E000602820D023
:104CD000402818BFB0F5007F1DD11868840153D556
:104CE000D868C40350D5D86800F066F8D868C0F317
:104CF0000622D868C00E44D1D868830340D53DE071
:104D0000B0F5805F08D1206800F4E060B0F5407F26
:104D1000DED1284A38E080B91868040134D5186912
:104D2000C40331D5186900F047F81869C0F30622AA
:104D30001869C00E25D118691EE0802818BFB0F58B
:104D4000806F04D1186841051ED5134A1CE0202845
:104D500018BFB0F5807F17D11868840014D5586942
:104D6000C40311D5586900F027F85869C0F306222A
:104D70005869C00E05D15869830301D5112000E0A0
:104D800007205143B1FBF0F2104610BD0010024065
:104D9000B0710B00EC7800080024F40000366E01BE
:104DA000006CDC020F80FF070F809FFF0F80FFF970
:104DB0009C10024068FF1F00C0F30310401CB1FBB1
:104DC000F0F170470EB44368DFF89C251340019A58
:104DD0000B4302991343039A0B43049913430B4368
:104DE0004360002003B070473AE00968C0F88010C3
:104DF0000020704780B5016841F003010160022086
:104E000000F0C4FA002002BD006800F00300704703
:104E100010B50A68DFF854358260C4684A681C40DF
:104E20008B681443CA6809691C4314430C43C4606B
:104E3000002010BD14300858704730B50A6842622F
:104E40004B688362C46A4D698B68CA6809691D43EF
:104E50001543240A0D4345EA0424C462002030BDF2
:104E6000D0F88000704718B585B000F03CF81021EC
:104E700000F030F841F28832102138E118B585B0E1
:104E800000F031F8112100F025F841F288321121AB
:104E90002DE118B585B000F026F8122100F01AF8BF
:104EA00041F28832122122E118B585B000F01BF8DA
:104EB000182100F00FF841F28832182117E118B5D7
:104EC00085B000F010F8192100F004F841F28832A2
:104ED00019210CE101914FF48052002103910492B9
:104EE0000446694694E74FF480720091029270473D
:104EF00018B54FF4807285B000F093F800900C2143
:104F000003904FF48052019104926946E06840F0AA
:104F10008000E0602046E26822F04002E260FFF795
:104F200077FFDFF84C240C21204600F0F2F8E1680E
:104F300021F08001E16006B010BD18B585B00721F1
:104F4000009201914FF4807200F0A0F841F2883293
:104F50000721CCE018B585B00446002000900190F0
:104F6000029000F08CF8DFF80C241168C9084FF4A7
:104F70007A73B1FBF3F141F2883041430846411E98
:104F800038B1606B0206F9D5DFF8EC03A0630020AE
:104F900001E04FF0004006B010BD18B508214FF4F5
:104FA000807285B00446019102924FF4D5700021C1
:104FB0000090039100F064F8204600F0B1F906B0CB
:104FC00010BD18B585B0FFF78EFF3721FFF782FFC0
:104FD00041F2883237218AE018B585B0FFF783FFA8
:104FE000292174E018B579E018B54FF4807285B0C6
:104FF00000F017F8332100F040F841F288323321F5
:1050000075E018B54FF4407285B000F00AF802213F
:105010000090019103904FF480520492694620461B
:1050200012E0044602920020704718B585B04FF494
:10503000407200910292092101914FF480520021A7
:105040000391049204466946FFF7E2FE204600F011
:10505000DEF806B010BD30B54FF4807285B004465E
:105060000D4602920020032100F007F82A46032192
:10507000204600F00DF905B030BD0090019103907D
:105080004FF48052049269462046C1E60292002104
:1050900003914FF48052049204466946B8E618B56D
:1050A00085B0FFF720FF0D21FFF714FF41F2883292
:1050B0000D211CE018B54FF4807285B0FFF7B1FFE9
:1050C0000D21FFF7DAFF41F288320D210FE0FFF7E3
:1050D00001FF204600F0B8F806B010BD85B0FFF71C
:1050E00002FF0621FFF7F6FE41F288320621204634
:1050F00000F00FF806B010BD18B54FF4807285B0FF
:10510000FFF78FFF0B21FFF7B8FF41F288320B2129
:10511000EDE730B5974C2568984C0346ED084FF401
:105120007A70B5FBF0F042431046421E40B1586B16
:105130002042F9D08004F7D45A6B500701D5EBE038
:10514000DBE0586BC20700D5E3E08B489863186931
:10515000C0B2884201D0012030BD58698849084258
:1051600001D1002030BD02D54FF0007030BD4100AC
:1051700001D5402030BD810001D5802030BDC10067
:1051800002D54FF4807030BD010102D54FF400709C
:1051900030BD410102D54FF4806030BDC10102D560
:1051A0004FF4006030BD010200D5A9E0410200D5F6
:1051B000A9E0810202D54FF4804030BDC10202D582
:1051C0004FF4004030BD410302D54FF4003030BDF4
:1051D000810302D54FF4802030BDC10302D54FF4C6
:1051E000002030BD010402D54FF4801030BD4104D1
:1051F00002D54FF4001030BD810402D54FF4800079
:1052000030BD000702D54FF4000030BD7EE05949A3
:105210000A68D2084FF47A73B2FBF3F241F2883194
:105220004A4311464A1E49B1416B11F0450FF8D06F
:105230008904F6D4426B510701D521E01DE0416B92
:10524000CA0700D59EE01FE04A490A68D2084FF419
:105250007A73B2FBF3F241F288314A4311464A1E97
:1052600049B1416B11F0450FF8D08904F6D4426B77
:10527000510701D504E000E006E04FF00040704720
:1052800004228263042070473B49816300207047F9
:1052900030B5034637480468E4084FF47A75B4FB28
:1052A000F5F441F2883044432046441E48B1586B1F
:1052B00010F0450FF8D08004F6D45C6B600701D580
:1052C0002AE01AE0586BC40700D522E01869C0B282
:1052D000884201D0012030BD27489863586910F4F6
:1052E000604F03D1000C1080002030BD410400D578
:1052F00009E0000400D503E008E04FF0004030BDB5
:105300004FF4805030BD4FF4005030BD4FF480302A
:1053100030BD0120986330BD04219963042030BD65
:1053200014490A68D2084FF47A73B2FBF3F241F2DF
:1053300088314A4311464A1E49B1416B11F0450F6D
:10534000F8D08904F6D4426B510701D598E794E769
:10535000416BCA0700D515E0416B4A0644BF4021A6
:105360008163002070470000002CC0FFC0E0FEFFFA
:1053700000E1F5050C000020C500200045002000DC
:1053800008E0FFFD012181630120704738B5044624
:10539000FEF7BEFF14F1010F054602D00448017864
:1053A0006418FEF7B5FF401BA042FAD331BD00BF21
:1053B0000000002010B5044610460A46014620466B
:1053C00000F0ECFB204610BD2DE9FC47050064D041
:1053D000DFF88477DFF89067BC68F86800F00308AE
:1053E0002878C10604F00C0447D524B10C2C08BF62
:1053F000B8F1010F2BD13868810702D5A8690028C0
:105400004BD0396808074EBF396871680909286AA6
:1054100001F0F001814206D200F065FB00283CD18A
:1054200000F015FA07E000F012FA24B9286A00F03B
:105430005AFB002831D100F0F9FA00F0ECFADFF85D
:105440002007006800F0DEFB010016D0F9E1A86932
:1054500028B3396841F001013960FEF759FF8146F0
:105460003868810707D4FEF753FFA0EB0900032833
:10547000F6D30320E5E100F0EAF92878C10756D514
:10548000082C04D00C2C08BFB8F1030F18D13868D1
:1054900081034CD56868002849D10120D1E13868E2
:1054A000400840003860FEF733FF814638688107C6
:1054B000E3D5FEF72DFFA0EB09000328F6D3D8E7CC
:1054C0006868B0F5803F04D1386840F480303860B7
:1054D00011E0B0F5A02F386806D140F48020386084
:1054E000396841F4803105E020F480303860396853
:1054F00021F480213960686860B1FEF709FF8146B8
:105500003868810313D4FEF703FFA0EB0900652878
:10551000F6D3AEE7FEF7FCFE81463868810306D578
:10552000FEF7F6FEA0EB09006528F6D3A1E7287880
:10553000810713D5042C04D00C2C08BFB8F1020F3E
:1055400022D13868410502D5E8680028A5D07868DE
:10555000296920F0FE4040EA016078602878010760
:1055600043D568690028706830D040F00100706051
:10557000FEF7CEFE80467068810736D4FEF7C8FE7F
:1055800000F061F9F7D374E7E86878B1396841F45D
:1055900080713960FEF7BCFE804638684105D6D47C
:1055A000FEF7B6FE00F04FF9F7D362E7386820F453
:1055B00080703860FEF7ACFE804638684105CDD576
:1055C000FEF7A6FE00F03FF9F7D352E7400840008F
:1055D0007060FEF79DFE80467068810705D5FEF776
:1055E00097FE00F030F9F7D343E72878410767D5F5
:1055F000B86DC1004FF000080AD4B86D40F080507B
:10560000B8654FF00108B86D00F080500090009828
:10561000DFF85895D9F80000C10513D4D9F8000077
:1056200040F48070C9F80000FEF772FE8246D9F897
:105630000000C10506D4FEF76BFEA0EB0A000328AC
:10564000F5D316E7A868012804D1306840F00100BE
:10565000306010E00528306806D140F0040030606A
:10566000316841F0010105E04008400030603168D8
:1056700021F004013160A86841F2893960B1FEF778
:1056800047FE82463068810713D4FEF741FEA0EB47
:105690000A004845F6D3ECE6FEF73AFE824630684B
:1056A000810706D5FEF734FEA0EB0A004845F6D385
:1056B000DFE6B8F1000F03D0B86D20F08050B86578
:1056C0002878810621D5686A0028B0680ED040F09D
:1056D0000100B060FEF71CFE8046B068810714D45C
:1056E000FEF716FE00F0AFF8F7D3C2E64008400020
:1056F000B060FEF70DFE8046B068810705D5FEF765
:1057000007FE00F0A0F8F7D3B3E6A86A002800F07F
:105710009780022874D1F868EA6A00F00301914288
:1057200001BF00F0F0012A6B521EB1EB021F1BD12A
:105730006A6B00F4FE41B1EB022F02BF00F078412A
:10574000AA6BB1EBC26F0FD1EA6B520800F4C00133
:10575000521EB1EB425F07D1296C490800F0C060CE
:10576000491EB0EB416F47D00C2C4AD0386841013C
:1057700001D43868C1003FF590AE386820F08070E1
:105780003860FEF7C5FD04463868810105D5FEF78F
:10579000BFFD001B0328F7D36BE6F868DFF8D013D2
:1057A000EA6A0840296B1043491E40EA0110EA6B7F
:1057B000696B520840EA0120296C521E490840EAF0
:1057C0004250491E40EA4160A96B40EAC160F8605E
:1057D000386840F080703860F96841F08071F96095
:1057E000FEF796FD04463868810129D4FEF790FD46
:1057F000001B0328F7D33CE63868810120D4E7E793
:105800000C2C3FF44AAE386820F08070386039685C
:1058100011F0205F03D1F86880088000F860F96813
:10582000DFF850030140F960FEF772FD0446386866
:10583000810105D5FEF76CFD001B0328F7D318E6A0
:105840000020BDE8F687A0EB080003287047386801
:1058500040F0080038603968286A21F0F0010143FF
:1058600039607968E86921F47F4141EA0021796073
:1058700070472DE9F84304460026002C60D0DFF87D
:10588000F8522868884600F00F00404502D200F028
:10589000B8F855D12168DFF8C072C80778D56068BC
:1058A000DFF8D892032841D13868820148D5F868DA
:1058B000002200F0030001280FD13868020705D448
:1058C000DFF8A0020268C2F3032002E03868C0F3E8
:1058D0000310DFF8AC2252F82020F86800F0030033
:1058E000022804D0032804D1DFF8982201E0DFF871
:1058F0009822FB68F868D7F80CC0C0F30620424332
:10590000C3F30310401CB2FBF0F0CCF34162521C15
:105910005200B0FBF2F0484520D3BA6812F0F00F05
:1059200015D089071AD5A068C0B910E0022802D1A5
:105930003868810303E00028386802D1810702D467
:105940003EE041053CD500F071F8484506D3B86803
:1059500020F0F00040F08000B8608026B9686068F0
:10596000890840EA8101B960FEF7D2FC8146B86837
:10597000616800F00C00B0EB810F09D0FEF7C8FCA5
:10598000A0EB090041F289318842F0D3032036E0D0
:105990002078810706D5BA68A06822F0F002024399
:1059A000BA6005E0802E03D1B86820F0F000B8603E
:1059B000286800F00F00804504D200F022F801D0E2
:1059C00001201CE02078410705D5BA68E06822F480
:1059D000E0620243BA602178080706D5B9682069F9
:1059E00021F4605141EAC001B96000F01FF800F0F5
:1059F00012F8BDE8F2435A48006800F003B9BDE868
:105A0000F2832968090948EA01112960286800F031
:105A10000F0040457047BA685C49C2F30312895CC5
:105A20004E4A01F01F01C8401060704770B54A4AE5
:105A3000544B9068D6680025002110F00C0006F049
:105A40000306514C03D00C2812D1012E1AD115682F
:105A50002E0704D4434D2E68C6F3032502E01568D3
:105A6000C5F30315464E56F8255048B9294624E09B
:105A7000042808BF214620D008281ED119461CE062
:105A80000C281AD1D06800F00300022803D00328A4
:105A900008BF1D4600E02546D168D068D268C0F333
:105AA00006204543C1F30310C2F34161401C491C69
:105AB000B5FBF0F04900B0FBF1F1084670BD274896
:105AC000334A006813683349C3F3022206E02348CF
:105AD0002F4A006813682F49C3F3C222895C01F082
